{
  "_format": "hh-sol-artifact-1",
  "contractName": "TaskCoordinator",
  "sourceName": "contracts/TaskCoordinator.sol",
  "abi": [
    {
      "inputs": [
        {
          "internalType": "address",
          "name": "_agentRegistry",
          "type": "address"
        }
      ],
      "stateMutability": "nonpayable",
      "type": "constructor"
    },
    {
      "inputs": [
        {
          "internalType": "address",
          "name": "owner",
          "type": "address"
        }
      ],
      "name": "OwnableInvalidOwner",
      "type": "error"
    },
    {
      "inputs": [
        {
          "internalType": "address",
          "name": "account",
          "type": "address"
        }
      ],
      "name": "OwnableUnauthorizedAccount",
      "type": "error"
    },
    {
      "inputs": [],
      "name": "ReentrancyGuardReentrantCall",
      "type": "error"
    },
    {
      "anonymous": false,
      "inputs": [
        {
          "indexed": true,
          "internalType": "address",
          "name": "previousOwner",
          "type": "address"
        },
        {
          "indexed": true,
          "internalType": "address",
          "name": "newOwner",
          "type": "address"
        }
      ],
      "name": "OwnershipTransferred",
      "type": "event"
    },
    {
      "anonymous": false,
      "inputs": [
        {
          "indexed": true,
          "internalType": "bytes32",
          "name": "taskId",
          "type": "bytes32"
        },
        {
          "indexed": true,
          "internalType": "bytes32",
          "name": "agentId",
          "type": "bytes32"
        }
      ],
      "name": "TaskApplied",
      "type": "event"
    },
    {
      "anonymous": false,
      "inputs": [
        {
          "indexed": true,
          "internalType": "bytes32",
          "name": "taskId",
          "type": "bytes32"
        },
        {
          "indexed": false,
          "internalType": "bytes32[]",
          "name": "agentIds",
          "type": "bytes32[]"
        }
      ],
      "name": "TaskAssigned",
      "type": "event"
    },
    {
      "anonymous": false,
      "inputs": [
        {
          "indexed": true,
          "internalType": "bytes32",
          "name": "taskId",
          "type": "bytes32"
        }
      ],
      "name": "TaskCancelled",
      "type": "event"
    },
    {
      "anonymous": false,
      "inputs": [
        {
          "indexed": true,
          "internalType": "bytes32",
          "name": "taskId",
          "type": "bytes32"
        }
      ],
      "name": "TaskCompleted",
      "type": "event"
    },
    {
      "anonymous": false,
      "inputs": [
        {
          "indexed": true,
          "internalType": "bytes32",
          "name": "taskId",
          "type": "bytes32"
        },
        {
          "indexed": true,
          "internalType": "address",
          "name": "creator",
          "type": "address"
        },
        {
          "indexed": false,
          "internalType": "uint256",
          "name": "reward",
          "type": "uint256"
        }
      ],
      "name": "TaskCreated",
      "type": "event"
    },
    {
      "anonymous": false,
      "inputs": [
        {
          "indexed": true,
          "internalType": "bytes32",
          "name": "taskId",
          "type": "bytes32"
        }
      ],
      "name": "TaskStarted",
      "type": "event"
    },
    {
      "inputs": [
        {
          "internalType": "bytes32",
          "name": "",
          "type": "bytes32"
        },
        {
          "internalType": "bytes32",
          "name": "",
          "type": "bytes32"
        }
      ],
      "name": "agentApplications",
      "outputs": [
        {
          "internalType": "bool",
          "name": "",
          "type": "bool"
        }
      ],
      "stateMutability": "view",
      "type": "function"
    },
    {
      "inputs": [],
      "name": "agentRegistry",
      "outputs": [
        {
          "internalType": "contract AgentRegistry",
          "name": "",
          "type": "address"
        }
      ],
      "stateMutability": "view",
      "type": "function"
    },
    {
      "inputs": [
        {
          "internalType": "uint256",
          "name": "",
          "type": "uint256"
        }
      ],
      "name": "allTaskIds",
      "outputs": [
        {
          "internalType": "bytes32",
          "name": "",
          "type": "bytes32"
        }
      ],
      "stateMutability": "view",
      "type": "function"
    },
    {
      "inputs": [
        {
          "internalType": "bytes32",
          "name": "taskId",
          "type": "bytes32"
        },
        {
          "internalType": "bytes32",
          "name": "agentId",
          "type": "bytes32"
        }
      ],
      "name": "applyForTask",
      "outputs": [],
      "stateMutability": "nonpayable",
      "type": "function"
    },
    {
      "inputs": [
        {
          "internalType": "bytes32",
          "name": "taskId",
          "type": "bytes32"
        },
        {
          "internalType": "bytes32[]",
          "name": "agentIds",
          "type": "bytes32[]"
        }
      ],
      "name": "assignAgents",
      "outputs": [],
      "stateMutability": "nonpayable",
      "type": "function"
    },
    {
      "inputs": [
        {
          "internalType": "bytes32",
          "name": "taskId",
          "type": "bytes32"
        }
      ],
      "name": "completeTask",
      "outputs": [],
      "stateMutability": "nonpayable",
      "type": "function"
    },
    {
      "inputs": [
        {
          "internalType": "string",
          "name": "description",
          "type": "string"
        },
        {
          "internalType": "bytes32[]",
          "name": "requiredCapabilities",
          "type": "bytes32[]"
        },
        {
          "internalType": "uint256",
          "name": "reward",
          "type": "uint256"
        },
        {
          "internalType": "address",
          "name": "rewardToken",
          "type": "address"
        },
        {
          "internalType": "uint256",
          "name": "deadline",
          "type": "uint256"
        }
      ],
      "name": "createTask",
      "outputs": [
        {
          "internalType": "bytes32",
          "name": "",
          "type": "bytes32"
        }
      ],
      "stateMutability": "payable",
      "type": "function"
    },
    {
      "inputs": [
        {
          "internalType": "bytes32",
          "name": "taskId",
          "type": "bytes32"
        }
      ],
      "name": "getTask",
      "outputs": [
        {
          "components": [
            {
              "internalType": "bytes32",
              "name": "taskId",
              "type": "bytes32"
            },
            {
              "internalType": "address",
              "name": "creator",
              "type": "address"
            },
            {
              "internalType": "string",
              "name": "description",
              "type": "string"
            },
            {
              "internalType": "bytes32[]",
              "name": "requiredCapabilities",
              "type": "bytes32[]"
            },
            {
              "internalType": "uint256",
              "name": "reward",
              "type": "uint256"
            },
            {
              "internalType": "address",
              "name": "rewardToken",
              "type": "address"
            },
            {
              "internalType": "enum TaskCoordinator.TaskStatus",
              "name": "status",
              "type": "uint8"
            },
            {
              "internalType": "bytes32[]",
              "name": "assignedAgents",
              "type": "bytes32[]"
            },
            {
              "internalType": "uint256",
              "name": "createdAt",
              "type": "uint256"
            },
            {
              "internalType": "uint256",
              "name": "deadline",
              "type": "uint256"
            }
          ],
          "internalType": "struct TaskCoordinator.Task",
          "name": "",
          "type": "tuple"
        }
      ],
      "stateMutability": "view",
      "type": "function"
    },
    {
      "inputs": [],
      "name": "owner",
      "outputs": [
        {
          "internalType": "address",
          "name": "",
          "type": "address"
        }
      ],
      "stateMutability": "view",
      "type": "function"
    },
    {
      "inputs": [],
      "name": "renounceOwnership",
      "outputs": [],
      "stateMutability": "nonpayable",
      "type": "function"
    },
    {
      "inputs": [
        {
          "internalType": "bytes32",
          "name": "taskId",
          "type": "bytes32"
        }
      ],
      "name": "startTask",
      "outputs": [],
      "stateMutability": "nonpayable",
      "type": "function"
    },
    {
      "inputs": [
        {
          "internalType": "bytes32",
          "name": "",
          "type": "bytes32"
        }
      ],
      "name": "tasks",
      "outputs": [
        {
          "internalType": "bytes32",
          "name": "taskId",
          "type": "bytes32"
        },
        {
          "internalType": "address",
          "name": "creator",
          "type": "address"
        },
        {
          "internalType": "string",
          "name": "description",
          "type": "string"
        },
        {
          "internalType": "uint256",
          "name": "reward",
          "type": "uint256"
        },
        {
          "internalType": "address",
          "name": "rewardToken",
          "type": "address"
        },
        {
          "internalType": "enum TaskCoordinator.TaskStatus",
          "name": "status",
          "type": "uint8"
        },
        {
          "internalType": "uint256",
          "name": "createdAt",
          "type": "uint256"
        },
        {
          "internalType": "uint256",
          "name": "deadline",
          "type": "uint256"
        }
      ],
      "stateMutability": "view",
      "type": "function"
    },
    {
      "inputs": [
        {
          "internalType": "address",
          "name": "newOwner",
          "type": "address"
        }
      ],
      "name": "transferOwnership",
      "outputs": [],
      "stateMutability": "nonpayable",
      "type": "function"
    }
  ],
  "bytecode": "0x60806040523480156200001157600080fd5b5060405162001d8a38038062001d8a833981016040819052620000349162000101565b33806200005b57604051631e4fbdf760e01b81526000600482015260240160405180910390fd5b6200006681620000b1565b5060017f9b779b17422d0df92223018b32b4d1fa46e071723d6817e2486d003becc55f0055600480546001600160a01b0319166001600160a01b039290921691909117905562000133565b600080546001600160a01b038381166001600160a01b0319831681178455604051919092169283917f8be0079c531659141344cd1fd0a4f28419497f9722a3daafe3b4186f6b6457e09190a35050565b6000602082840312156200011457600080fd5b81516001600160a01b03811681146200012c57600080fd5b9392505050565b611c4780620001436000396000f3fe6080604052600436106100c25760003560e01c80637f7ab8f21161007f578063b99f01a911610059578063b99f01a914610232578063e579f50014610252578063f1e838e314610286578063f2fde38b146102a657600080fd5b80637f7ab8f2146101a95780638c5152fa146101f45780638da5cb5b1461021457600080fd5b80630d1cfcae146100c757806315a290351461010457806334d094a314610131578063715018a61461015257806376c3504b146101695780637c0390f714610189575b600080fd5b3480156100d357600080fd5b506004546100e7906001600160a01b031681565b6040516001600160a01b0390911681526020015b60405180910390f35b34801561011057600080fd5b5061012461011f36600461133a565b6102c6565b6040516100fb9190611416565b61014461013f366004611640565b610508565b6040519081526020016100fb565b34801561015e57600080fd5b5061016761089e565b005b34801561017557600080fd5b5061014461018436600461133a565b6108b2565b34801561019557600080fd5b506101676101a436600461133a565b6108d3565b3480156101b557600080fd5b506101e46101c4366004611707565b600260209081526000928352604080842090915290825290205460ff1681565b60405190151581526020016100fb565b34801561020057600080fd5b5061016761020f366004611729565b610b82565b34801561022057600080fd5b506000546001600160a01b03166100e7565b34801561023e57600080fd5b5061016761024d36600461133a565b610d50565b34801561025e57600080fd5b5061027261026d36600461133a565b610f31565b6040516100fb989796959493929190611770565b34801561029257600080fd5b506101676102a1366004611707565b611016565b3480156102b257600080fd5b506101676102c13660046117d1565b61121f565b61031e60408051610140810182526000808252602082018190526060928201839052828201929092526080810182905260a081018290529060c082019081526020016060815260200160008152602001600081525090565b60008281526001602081815260409283902083516101408101855281548152928101546001600160a01b0316918301919091526002810180549293919291840191610368906117f5565b80601f0160208091040260200160405190810160405280929190818152602001828054610394906117f5565b80156103e15780601f106103b6576101008083540402835291602001916103e1565b820191906000526020600020905b8154815290600101906020018083116103c457829003601f168201915b505050505081526020016003820180548060200260200160405190810160405280929190818152602001828054801561043957602002820191906000526020600020905b815481526020019060010190808311610425575b5050509183525050600482810154602083015260058301546001600160a01b0381166040840152606090920191600160a01b900460ff1690811115610480576104806113de565b6004811115610491576104916113de565b8152602001600682018054806020026020016040519081016040528092919081815260200182805480156104e457602002820191906000526020600020905b8154815260200190600101908083116104d0575b50505050508152602001600782015481526020016008820154815250509050919050565b6000803387426040516020016105209392919061182f565b60408051601f198184030181529181528151602092830120600081815260019384905291909120909101549091506001600160a01b0316156105975760405162461bcd60e51b815260206004820152600b60248201526a5461736b2065786973747360a81b60448201526064015b60405180910390fd5b4283116105d95760405162461bcd60e51b815260206004820152601060248201526f496e76616c696420646561646c696e6560801b604482015260640161058e565b6001600160a01b0384166106305784341461062b5760405162461bcd60e51b8152602060048201526012602482015271125b98dbdc9c9958dd08115512081cd95b9d60721b604482015260640161058e565b6106a9565b6040516323b872dd60e01b8152336004820152306024820152604481018690526001600160a01b038516906323b872dd906064016020604051808303816000875af1158015610683573d6000803e3d6000fd5b505050506040513d601f19601f820116820180604052508101906106a7919061187e565b505b604080516101408101825282815233602082015290810188905260608101879052608081018690526001600160a01b03851660a082015260c08101600081526020016000604051908082528060200260200182016040528015610716578160200160208202803683370190505b5081524260208083019190915260409182018690526000848152600180835290839020845181559184015190820180546001600160a01b0319166001600160a01b0390921691909117905590820151600282019061077490826118e8565b50606082015180516107909160038401916020909101906112da565b50608082015160048083019190915560a08301516005830180546001600160a01b039092166001600160a01b031983168117825560c08601519391926001600160a81b0319161790600160a01b9084908111156107ef576107ef6113de565b021790555060e0820151805161080f9160068401916020909101906112da565b50610100820151600782015561012090910151600890910155600380546001810182556000919091527fc2575a0e9e593c00f959f8c92f12db2869c3395a3b0502d05e2516446f71f85b01819055604051858152339082907f5fb74283f874d0f894d0de9c856a2a842137dc2c21c621e080065c7b797c00959060200160405180910390a39695505050505050565b6108a661125d565b6108b0600061128a565b565b600381815481106108c257600080fd5b600091825260209091200154905081565b6000818152600160208190526040909120908101546001600160a01b031633146109325760405162461bcd60e51b815260206004820152601060248201526f2737ba103a30b9b59031b932b0ba37b960811b604482015260640161058e565b60026005820154600160a01b900460ff166004811115610954576109546113de565b146109985760405162461bcd60e51b81526020600482015260146024820152735461736b206e6f7420696e2070726f677265737360601b604482015260640161058e565b60058101805460ff60a01b1916600360a01b179055600681015460048201546000916109c3916119a8565b905060005b6006830154811015610b51576004546006840180546000926001600160a01b03169163a6c2af019185908110610a0057610a006119ca565b90600052602060002001546040518263ffffffff1660e01b8152600401610a2991815260200190565b600060405180830381865afa158015610a46573d6000803e3d6000fd5b505050506040513d6000823e601f3d908101601f19168201604052610a6e9190810190611ab8565b60058501549091506001600160a01b0316610ac25780516040516001600160a01b039091169084156108fc029085906000818181858888f19350505050158015610abc573d6000803e3d6000fd5b50610b3e565b6005840154815160405163a9059cbb60e01b81526001600160a01b0391821660048201526024810186905291169063a9059cbb906044016020604051808303816000875af1158015610b18573d6000803e3d6000fd5b505050506040513d601f19601f82011682018060405250810190610b3c919061187e565b505b5080610b4981611ba6565b9150506109c8565b5060405183907f572a2b6ee4b829f7c9a4b27bd7729666696a0b5e394e1a9ad92e925e483f02c290600090a2505050565b6000828152600160208190526040909120908101546001600160a01b03163314610be15760405162461bcd60e51b815260206004820152601060248201526f2737ba103a30b9b59031b932b0ba37b960811b604482015260640161058e565b60006005820154600160a01b900460ff166004811115610c0357610c036113de565b14610c405760405162461bcd60e51b815260206004820152600d60248201526c2a30b9b5903737ba1037b832b760991b604482015260640161058e565b60005b8251811015610ce557600260008581526020019081526020016000206000848381518110610c7357610c736119ca565b60209081029190910181015182528101919091526040016000205460ff16610cd35760405162461bcd60e51b81526020600482015260136024820152724167656e7420646964206e6f74206170706c7960681b604482015260640161058e565b80610cdd81611ba6565b915050610c43565b508151610cfb90600683019060208501906112da565b5060058101805460ff60a01b1916600160a01b17905560405183907fdba2b05f84120acdde964d1349c5d5ae162722f5637e7ad5b8bbd879b8c35acc90610d43908590611bcd565b60405180910390a2505050565b6000818152600160208190526040909120906005820154600160a01b900460ff166004811115610d8257610d826113de565b14610dc35760405162461bcd60e51b815260206004820152601160248201527015185cdac81b9bdd08185cdcda59db9959607a1b604482015260640161058e565b6000805b6006830154811015610ea9576004546006840180546000926001600160a01b03169163a6c2af019185908110610dff57610dff6119ca565b90600052602060002001546040518263ffffffff1660e01b8152600401610e2891815260200190565b600060405180830381865afa158015610e45573d6000803e3d6000fd5b505050506040513d6000823e601f3d908101601f19168201604052610e6d9190810190611ab8565b9050336001600160a01b031681600001516001600160a01b031603610e96576001925050610ea9565b5080610ea181611ba6565b915050610dc7565b5080610eec5760405162461bcd60e51b8152602060048201526012602482015271139bdd08185cdcda59db9959081859d95b9d60721b604482015260640161058e565b60058201805460ff60a01b1916600160a11b17905560405183907f07470431b1f69243b874ff06cb735cc162047781e4f645f722e7220de277b7c490600090a2505050565b60016020819052600091825260409091208054918101546002820180546001600160a01b039092169291610f64906117f5565b80601f0160208091040260200160405190810160405280929190818152602001828054610f90906117f5565b8015610fdd5780601f10610fb257610100808354040283529160200191610fdd565b820191906000526020600020905b815481529060010190602001808311610fc057829003601f168201915b50505050600483015460058401546007850154600890950154939491936001600160a01b0382169350600160a01b90910460ff16919088565b6000828152600160205260408120906005820154600160a01b900460ff166004811115611045576110456113de565b146110825760405162461bcd60e51b815260206004820152600d60248201526c2a30b9b5903737ba1037b832b760991b604482015260640161058e565b806008015442106110c75760405162461bcd60e51b815260206004820152600f60248201526e111958591b1a5b99481c185cdcd959608a1b604482015260640161058e565b6004805460405163a6c2af0160e01b81529182018490526000916001600160a01b039091169063a6c2af0190602401600060405180830381865afa158015611113573d6000803e3d6000fd5b505050506040513d6000823e601f3d908101601f1916820160405261113b9190810190611ab8565b80519091506001600160a01b031633146111895760405162461bcd60e51b815260206004820152600f60248201526e2737ba1030b3b2b73a1037bbb732b960891b604482015260640161058e565b8060a001516111cb5760405162461bcd60e51b815260206004820152600e60248201526d4167656e7420696e61637469766560901b604482015260640161058e565b6000848152600260209081526040808320868452909152808220805460ff1916600117905551849186917fa6e80ebd4fc833d6bc19f993793963a04a651fc02c99d60e744e7c57581052239190a350505050565b61122761125d565b6001600160a01b03811661125157604051631e4fbdf760e01b81526000600482015260240161058e565b61125a8161128a565b50565b6000546001600160a01b031633146108b05760405163118cdaa760e01b815233600482015260240161058e565b600080546001600160a01b038381166001600160a01b0319831681178455604051919092169283917f8be0079c531659141344cd1fd0a4f28419497f9722a3daafe3b4186f6b6457e09190a35050565b828054828255906000526020600020908101928215611315579160200282015b828111156113155782518255916020019190600101906112fa565b50611321929150611325565b5090565b5b808211156113215760008155600101611326565b60006020828403121561134c57600080fd5b5035919050565b60005b8381101561136e578181015183820152602001611356565b50506000910152565b6000815180845261138f816020860160208601611353565b601f01601f19169290920160200192915050565b600081518084526020808501945080840160005b838110156113d3578151875295820195908201906001016113b7565b509495945050505050565b634e487b7160e01b600052602160045260246000fd5b6005811061141257634e487b7160e01b600052602160045260246000fd5b9052565b60208152815160208201526000602083015161143d60408401826001600160a01b03169052565b50604083015161014080606085015261145a610160850183611377565b91506060850151601f198086850301608087015261147884836113a3565b9350608087015160a087015260a087015191506114a060c08701836001600160a01b03169052565b60c087015191506114b460e08701836113f4565b60e087015191506101008187860301818801526114d185846113a3565b908801516101208881019190915290970151929095019190915250929392505050565b634e487b7160e01b600052604160045260246000fd5b60405160e0810167ffffffffffffffff8111828210171561152d5761152d6114f4565b60405290565b604051601f8201601f1916810167ffffffffffffffff8111828210171561155c5761155c6114f4565b604052919050565b600067ffffffffffffffff82111561157e5761157e6114f4565b50601f01601f191660200190565b600067ffffffffffffffff8211156115a6576115a66114f4565b5060051b60200190565b600082601f8301126115c157600080fd5b813560206115d66115d18361158c565b611533565b82815260059290921b840181019181810190868411156115f557600080fd5b8286015b8481101561161057803583529183019183016115f9565b509695505050505050565b6001600160a01b038116811461125a57600080fd5b803561163b8161161b565b919050565b600080600080600060a0868803121561165857600080fd5b853567ffffffffffffffff8082111561167057600080fd5b818801915088601f83011261168457600080fd5b81356116926115d182611564565b8181528a60208386010111156116a757600080fd5b81602085016020830137600060208383010152809850505060208801359150808211156116d357600080fd5b506116e0888289016115b0565b945050604086013592506116f660608701611630565b949793965091946080013592915050565b6000806040838503121561171a57600080fd5b50508035926020909101359150565b6000806040838503121561173c57600080fd5b82359150602083013567ffffffffffffffff81111561175a57600080fd5b611766858286016115b0565b9150509250929050565b8881526001600160a01b0388811660208301526101006040830181905260009161179c8483018b611377565b9250886060850152808816608085015250506117bb60a08301866113f4565b60c082019390935260e001529695505050505050565b6000602082840312156117e357600080fd5b81356117ee8161161b565b9392505050565b600181811c9082168061180957607f821691505b60208210810361182957634e487b7160e01b600052602260045260246000fd5b50919050565b6bffffffffffffffffffffffff198460601b16815260008351611859816014850160208801611353565b60149201918201929092526034019392505050565b8051801515811461163b57600080fd5b60006020828403121561189057600080fd5b6117ee8261186e565b601f8211156118e357600081815260208120601f850160051c810160208610156118c05750805b601f850160051c820191505b818110156118df578281556001016118cc565b5050505b505050565b815167ffffffffffffffff811115611902576119026114f4565b6119168161191084546117f5565b84611899565b602080601f83116001811461194b57600084156119335750858301515b600019600386901b1c1916600185901b1785556118df565b600085815260208120601f198616915b8281101561197a5788860151825594840194600190910190840161195b565b50858210156119985787850151600019600388901b60f8161c191681555b5050505050600190811b01905550565b6000826119c557634e487b7160e01b600052601260045260246000fd5b500490565b634e487b7160e01b600052603260045260246000fd5b805161163b8161161b565b600082601f8301126119fc57600080fd5b8151611a0a6115d182611564565b818152846020838601011115611a1f57600080fd5b611a30826020830160208701611353565b949350505050565b600082601f830112611a4957600080fd5b81516020611a596115d18361158c565b82815260059290921b84018101918181019086841115611a7857600080fd5b8286015b8481101561161057805167ffffffffffffffff811115611a9c5760008081fd5b611aaa8986838b01016119eb565b845250918301918301611a7c565b600060208284031215611aca57600080fd5b815167ffffffffffffffff80821115611ae257600080fd5b9083019060e08286031215611af657600080fd5b611afe61150a565b611b07836119e0565b8152602083015182811115611b1b57600080fd5b611b27878286016119eb565b602083015250604083015182811115611b3f57600080fd5b611b4b878286016119eb565b604083015250606083015182811115611b6357600080fd5b611b6f87828601611a38565b60608301525060808301516080820152611b8b60a0840161186e565b60a082015260c083015160c082015280935050505092915050565b600060018201611bc657634e487b7160e01b600052601160045260246000fd5b5060010190565b6020808252825182820181905260009190848201906040850190845b81811015611c0557835183529284019291840191600101611be9565b5090969550505050505056fea2646970667358221220ab08fdae3396a011443ee02d94e21635664cc9351f69cee42d3147831041429f64736f6c63430008140033",
  "linkReferences": {},
  "deployedLinkReferences": {}
}