{
  "_format": "hh-sol-artifact-1",
  "contractName": "ReputationVault",
  "sourceName": "contracts/ReputationVault.sol",
  "abi": [
    {
      "inputs": [
        {
          "internalType": "address",
          "name": "_agentRegistry",
          "type": "address"
        }
      ],
      "stateMutability": "nonpayable",
      "type": "constructor"
    },
    {
      "inputs": [
        {
          "internalType": "address",
          "name": "owner",
          "type": "address"
        }
      ],
      "name": "OwnableInvalidOwner",
      "type": "error"
    },
    {
      "inputs": [
        {
          "internalType": "address",
          "name": "account",
          "type": "address"
        }
      ],
      "name": "OwnableUnauthorizedAccount",
      "type": "error"
    },
    {
      "anonymous": false,
      "inputs": [
        {
          "indexed": true,
          "internalType": "address",
          "name": "previousOwner",
          "type": "address"
        },
        {
          "indexed": true,
          "internalType": "address",
          "name": "newOwner",
          "type": "address"
        }
      ],
      "name": "OwnershipTransferred",
      "type": "event"
    },
    {
      "anonymous": false,
      "inputs": [
        {
          "indexed": true,
          "internalType": "bytes32",
          "name": "agentId",
          "type": "bytes32"
        },
        {
          "indexed": true,
          "internalType": "address",
          "name": "rater",
          "type": "address"
        },
        {
          "indexed": false,
          "internalType": "uint256",
          "name": "rating",
          "type": "uint256"
        }
      ],
      "name": "Rated",
      "type": "event"
    },
    {
      "anonymous": false,
      "inputs": [
        {
          "indexed": true,
          "internalType": "bytes32",
          "name": "agentId",
          "type": "bytes32"
        },
        {
          "indexed": false,
          "internalType": "uint256",
          "name": "newScore",
          "type": "uint256"
        },
        {
          "indexed": false,
          "internalType": "string",
          "name": "reason",
          "type": "string"
        }
      ],
      "name": "ReputationUpdated",
      "type": "event"
    },
    {
      "anonymous": false,
      "inputs": [
        {
          "indexed": true,
          "internalType": "bytes32",
          "name": "agentId",
          "type": "bytes32"
        },
        {
          "indexed": true,
          "internalType": "bytes32",
          "name": "taskId",
          "type": "bytes32"
        }
      ],
      "name": "TaskCompleted",
      "type": "event"
    },
    {
      "anonymous": false,
      "inputs": [
        {
          "indexed": true,
          "internalType": "bytes32",
          "name": "agentId",
          "type": "bytes32"
        },
        {
          "indexed": true,
          "internalType": "bytes32",
          "name": "taskId",
          "type": "bytes32"
        }
      ],
      "name": "TaskFailed",
      "type": "event"
    },
    {
      "inputs": [],
      "name": "MAX_RATING",
      "outputs": [
        {
          "internalType": "uint256",
          "name": "",
          "type": "uint256"
        }
      ],
      "stateMutability": "view",
      "type": "function"
    },
    {
      "inputs": [],
      "name": "REPUTATION_DECAY_DAYS",
      "outputs": [
        {
          "internalType": "uint256",
          "name": "",
          "type": "uint256"
        }
      ],
      "stateMutability": "view",
      "type": "function"
    },
    {
      "inputs": [],
      "name": "agentRegistry",
      "outputs": [
        {
          "internalType": "contract AgentRegistry",
          "name": "",
          "type": "address"
        }
      ],
      "stateMutability": "view",
      "type": "function"
    },
    {
      "inputs": [
        {
          "internalType": "bytes32",
          "name": "agentId",
          "type": "bytes32"
        }
      ],
      "name": "getAverageRating",
      "outputs": [
        {
          "internalType": "uint256",
          "name": "",
          "type": "uint256"
        }
      ],
      "stateMutability": "view",
      "type": "function"
    },
    {
      "inputs": [
        {
          "internalType": "bytes32",
          "name": "agentId",
          "type": "bytes32"
        }
      ],
      "name": "getReputation",
      "outputs": [
        {
          "components": [
            {
              "internalType": "uint256",
              "name": "totalScore",
              "type": "uint256"
            },
            {
              "internalType": "uint256",
              "name": "taskCompleted",
              "type": "uint256"
            },
            {
              "internalType": "uint256",
              "name": "taskFailed",
              "type": "uint256"
            },
            {
              "internalType": "uint256",
              "name": "ratingSum",
              "type": "uint256"
            },
            {
              "internalType": "uint256",
              "name": "ratingCount",
              "type": "uint256"
            },
            {
              "internalType": "uint256",
              "name": "lastUpdated",
              "type": "uint256"
            }
          ],
          "internalType": "struct ReputationVault.ReputationScore",
          "name": "",
          "type": "tuple"
        }
      ],
      "stateMutability": "view",
      "type": "function"
    },
    {
      "inputs": [
        {
          "internalType": "bytes32",
          "name": "agentId",
          "type": "bytes32"
        }
      ],
      "name": "getSuccessRate",
      "outputs": [
        {
          "internalType": "uint256",
          "name": "",
          "type": "uint256"
        }
      ],
      "stateMutability": "view",
      "type": "function"
    },
    {
      "inputs": [
        {
          "internalType": "bytes32",
          "name": "",
          "type": "bytes32"
        },
        {
          "internalType": "address",
          "name": "",
          "type": "address"
        }
      ],
      "name": "hasRated",
      "outputs": [
        {
          "internalType": "bool",
          "name": "",
          "type": "bool"
        }
      ],
      "stateMutability": "view",
      "type": "function"
    },
    {
      "inputs": [],
      "name": "owner",
      "outputs": [
        {
          "internalType": "address",
          "name": "",
          "type": "address"
        }
      ],
      "stateMutability": "view",
      "type": "function"
    },
    {
      "inputs": [
        {
          "internalType": "bytes32",
          "name": "agentId",
          "type": "bytes32"
        },
        {
          "internalType": "uint256",
          "name": "rating",
          "type": "uint256"
        }
      ],
      "name": "rateAgent",
      "outputs": [],
      "stateMutability": "nonpayable",
      "type": "function"
    },
    {
      "inputs": [
        {
          "internalType": "bytes32",
          "name": "agentId",
          "type": "bytes32"
        },
        {
          "internalType": "bytes32",
          "name": "taskId",
          "type": "bytes32"
        }
      ],
      "name": "recordTaskCompletion",
      "outputs": [],
      "stateMutability": "nonpayable",
      "type": "function"
    },
    {
      "inputs": [
        {
          "internalType": "bytes32",
          "name": "agentId",
          "type": "bytes32"
        },
        {
          "internalType": "bytes32",
          "name": "taskId",
          "type": "bytes32"
        }
      ],
      "name": "recordTaskFailure",
      "outputs": [],
      "stateMutability": "nonpayable",
      "type": "function"
    },
    {
      "inputs": [],
      "name": "renounceOwnership",
      "outputs": [],
      "stateMutability": "nonpayable",
      "type": "function"
    },
    {
      "inputs": [
        {
          "internalType": "bytes32",
          "name": "",
          "type": "bytes32"
        }
      ],
      "name": "reputations",
      "outputs": [
        {
          "internalType": "uint256",
          "name": "totalScore",
          "type": "uint256"
        },
        {
          "internalType": "uint256",
          "name": "taskCompleted",
          "type": "uint256"
        },
        {
          "internalType": "uint256",
          "name": "taskFailed",
          "type": "uint256"
        },
        {
          "internalType": "uint256",
          "name": "ratingSum",
          "type": "uint256"
        },
        {
          "internalType": "uint256",
          "name": "ratingCount",
          "type": "uint256"
        },
        {
          "internalType": "uint256",
          "name": "lastUpdated",
          "type": "uint256"
        }
      ],
      "stateMutability": "view",
      "type": "function"
    },
    {
      "inputs": [
        {
          "internalType": "address",
          "name": "newOwner",
          "type": "address"
        }
      ],
      "name": "transferOwnership",
      "outputs": [],
      "stateMutability": "nonpayable",
      "type": "function"
    }
  ],
  "bytecode": "0x608060405234801561001057600080fd5b50604051610ef7380380610ef783398101604081905261002f916100d4565b338061005557604051631e4fbdf760e01b81526000600482015260240160405180910390fd5b61005e81610084565b50600380546001600160a01b0319166001600160a01b0392909216919091179055610104565b600080546001600160a01b038381166001600160a01b0319831681178455604051919092169283917f8be0079c531659141344cd1fd0a4f28419497f9722a3daafe3b4186f6b6457e09190a35050565b6000602082840312156100e657600080fd5b81516001600160a01b03811681146100fd57600080fd5b9392505050565b610de4806101136000396000f3fe608060405234801561001057600080fd5b50600436106100ea5760003560e01c80638da5cb5b1161008c578063d14519d211610066578063d14519d214610240578063f1ab238b1461029f578063f2fde38b146102b2578063f8dd5cc3146102c557600080fd5b80638da5cb5b1461021457806394e113ea14610225578063abbb15e31461022d57600080fd5b80634e4c4b4e116100c85780634e4c4b4e146101ce57806353031040146101ef578063715018a614610202578063750c5c711461020c57600080fd5b80630d1cfcae146100ef578063159bf1af1461011f5780634ba7197b1461015d575b600080fd5b600354610102906001600160a01b031681565b6040516001600160a01b0390911681526020015b60405180910390f35b61014d61012d3660046109f0565b600260209081526000928352604080842090915290825290205460ff1681565b6040519015158152602001610116565b6101a161016b366004610a20565b60016020819052600091825260409091208054918101546002820154600383015460048401546005909401549293919290919086565b604080519687526020870195909552938501929092526060840152608083015260a082015260c001610116565b6101e16101dc366004610a20565b6102d8565b604051908152602001610116565b6101e16101fd366004610a20565b61036b565b61020a6103e7565b005b6101e1605a81565b6000546001600160a01b0316610102565b6101e1600581565b61020a61023b366004610a39565b6103fb565b61025361024e366004610a20565b6104d7565b6040516101169190600060c082019050825182526020830151602083015260408301516040830152606083015160608301526080830151608083015260a083015160a083015292915050565b61020a6102ad366004610a39565b610568565b61020a6102c0366004610a5b565b610641565b61020a6102d3366004610a39565b610684565b6000818152600160208181526040808420815160c0810183528154815293810154928401839052600281015491840182905260038101546060850152600481015460808501526005015460a084015283916103339190610a8e565b905080600003610347575060009392505050565b80826020015160646103599190610aa7565b6103639190610abe565b949350505050565b6000818152600160208181526040808420815160c0810183528154815293810154928401929092526002820154908301526003810154606083015260048101546080830181905260059091015460a083015282036103cc5750600092915050565b806080015181606001516103e09190610abe565b9392505050565b6103ef61095e565b6103f9600061098b565b565b61040361095e565b600082815260016020819052604082209081018054919261042383610ae0565b9190505550600a81600001600082825461043d9190610a8e565b9091555050426005820155604051829084907f6a3a17a2ee0f5a9660f62936a17b5adc124d313734df031f55ab6c55bac36cfa90600090a380546040805191825260208201819052600e908201526d15185cdac818dbdb5c1b195d195960921b606082015283907f9a222692ed5237bfb82fe3b9ddcf8ea25a89a2b2dc488bf4232ac8e97c36d902906080015b60405180910390a2505050565b6105106040518060c001604052806000815260200160008152602001600081526020016000815260200160008152602001600081525090565b50600090815260016020818152604092839020835160c081018552815481529281015491830191909152600281015492820192909252600382015460608201526004820154608082015260059091015460a082015290565b61057061095e565b6000828152600160205260408120600281018054919261058f83610ae0565b909155505080546005116105b85760058160000160008282546105b29190610af9565b90915550505b426005820155604051829084907f6d1751dc5f473234e7c2dfedeb684ea32702ea6e40ee48aa43e283727df8407390600090a380546040805191825260208201819052600b908201526a15185cdac819985a5b195960aa1b606082015283907f9a222692ed5237bfb82fe3b9ddcf8ea25a89a2b2dc488bf4232ac8e97c36d902906080016104ca565b61064961095e565b6001600160a01b03811661067857604051631e4fbdf760e01b8152600060048201526024015b60405180910390fd5b6106818161098b565b50565b600081118015610695575060058111155b6106d25760405162461bcd60e51b815260206004820152600e60248201526d496e76616c696420726174696e6760901b604482015260640161066f565b600082815260026020908152604080832033845290915290205460ff161561072c5760405162461bcd60e51b815260206004820152600d60248201526c105b1c9958591e481c985d1959609a1b604482015260640161066f565b60035460405163a6c2af0160e01b8152600481018490526000916001600160a01b03169063a6c2af0190602401600060405180830381865afa158015610776573d6000803e3d6000fd5b505050506040513d6000823e601f3d908101601f1916820160405261079e9190810190610cc0565b9050336001600160a01b031681600001516001600160a01b0316036107fd5760405162461bcd60e51b815260206004820152601560248201527410d85b9b9bdd081c985d19481bdddb881859d95b9d605a1b604482015260640161066f565b8060a0015161083f5760405162461bcd60e51b815260206004820152600e60248201526d4167656e7420696e61637469766560901b604482015260640161066f565b600083815260016020526040812060038101805491928592610862908490610a8e565b909155505060048101805490600061087983610ae0565b9091555061088a9050836002610aa7565b81600001600082825461089d9190610a8e565b909155505042600582015560008481526002602090815260408083203380855290835292819020805460ff191660011790555185815286917fe989028a1d9768792bc28fdefc31709f34558ab19aa2b7da670ba29cb414bb34910160405180910390a380546040805191825260208201819052600a90820152694e657720726174696e6760b01b606082015284907f9a222692ed5237bfb82fe3b9ddcf8ea25a89a2b2dc488bf4232ac8e97c36d9029060800160405180910390a250505050565b6000546001600160a01b031633146103f95760405163118cdaa760e01b815233600482015260240161066f565b600080546001600160a01b038381166001600160a01b0319831681178455604051919092169283917f8be0079c531659141344cd1fd0a4f28419497f9722a3daafe3b4186f6b6457e09190a35050565b6001600160a01b038116811461068157600080fd5b60008060408385031215610a0357600080fd5b823591506020830135610a15816109db565b809150509250929050565b600060208284031215610a3257600080fd5b5035919050565b60008060408385031215610a4c57600080fd5b50508035926020909101359150565b600060208284031215610a6d57600080fd5b81356103e0816109db565b634e487b7160e01b600052601160045260246000fd5b80820180821115610aa157610aa1610a78565b92915050565b8082028115828204841417610aa157610aa1610a78565b600082610adb57634e487b7160e01b600052601260045260246000fd5b500490565b600060018201610af257610af2610a78565b5060010190565b81810381811115610aa157610aa1610a78565b634e487b7160e01b600052604160045260246000fd5b60405160e0810167ffffffffffffffff81118282101715610b4557610b45610b0c565b60405290565b604051601f8201601f1916810167ffffffffffffffff81118282101715610b7457610b74610b0c565b604052919050565b8051610b87816109db565b919050565b600082601f830112610b9d57600080fd5b815167ffffffffffffffff811115610bb757610bb7610b0c565b6020610bcb601f8301601f19168201610b4b565b8281528582848701011115610bdf57600080fd5b60005b83811015610bfd578581018301518282018401528201610be2565b506000928101909101919091529392505050565b600082601f830112610c2257600080fd5b8151602067ffffffffffffffff80831115610c3f57610c3f610b0c565b8260051b610c4e838201610b4b565b9384528581018301938381019088861115610c6857600080fd5b84880192505b85831015610ca457825184811115610c865760008081fd5b610c948a87838c0101610b8c565b8352509184019190840190610c6e565b98975050505050505050565b80518015158114610b8757600080fd5b600060208284031215610cd257600080fd5b815167ffffffffffffffff80821115610cea57600080fd5b9083019060e08286031215610cfe57600080fd5b610d06610b22565b610d0f83610b7c565b8152602083015182811115610d2357600080fd5b610d2f87828601610b8c565b602083015250604083015182811115610d4757600080fd5b610d5387828601610b8c565b604083015250606083015182811115610d6b57600080fd5b610d7787828601610c11565b60608301525060808301516080820152610d9360a08401610cb0565b60a082015260c083015160c08201528093505050509291505056fea264697066735822122069cd3f7a1c0b0557a211bff800833af67beb9d0b9c341975f09489f8f9482e8164736f6c63430008140033",
  "linkReferences": {},
  "deployedLinkReferences": {}
}