{
  "_format": "hh-sol-artifact-1",
  "contractName": "AgentPaymentSplitter",
  "sourceName": "contracts/PaymentSplitter.sol",
  "abi": [
    {
      "inputs": [
        {
          "internalType": "address",
          "name": "owner",
          "type": "address"
        }
      ],
      "name": "OwnableInvalidOwner",
      "type": "error"
    },
    {
      "inputs": [
        {
          "internalType": "address",
          "name": "account",
          "type": "address"
        }
      ],
      "name": "OwnableUnauthorizedAccount",
      "type": "error"
    },
    {
      "anonymous": false,
      "inputs": [
        {
          "indexed": true,
          "internalType": "bytes32",
          "name": "taskId",
          "type": "bytes32"
        },
        {
          "indexed": true,
          "internalType": "address",
          "name": "payee",
          "type": "address"
        },
        {
          "indexed": true,
          "internalType": "address",
          "name": "token",
          "type": "address"
        },
        {
          "indexed": false,
          "internalType": "uint256",
          "name": "amount",
          "type": "uint256"
        }
      ],
      "name": "ERC20PaymentReleased",
      "type": "event"
    },
    {
      "anonymous": false,
      "inputs": [
        {
          "indexed": true,
          "internalType": "address",
          "name": "previousOwner",
          "type": "address"
        },
        {
          "indexed": true,
          "internalType": "address",
          "name": "newOwner",
          "type": "address"
        }
      ],
      "name": "OwnershipTransferred",
      "type": "event"
    },
    {
      "anonymous": false,
      "inputs": [
        {
          "indexed": true,
          "internalType": "bytes32",
          "name": "taskId",
          "type": "bytes32"
        },
        {
          "indexed": true,
          "internalType": "address",
          "name": "payee",
          "type": "address"
        },
        {
          "indexed": false,
          "internalType": "uint256",
          "name": "amount",
          "type": "uint256"
        }
      ],
      "name": "PaymentReleased",
      "type": "event"
    },
    {
      "anonymous": false,
      "inputs": [
        {
          "indexed": true,
          "internalType": "bytes32",
          "name": "taskId",
          "type": "bytes32"
        },
        {
          "indexed": false,
          "internalType": "address[]",
          "name": "payees",
          "type": "address[]"
        },
        {
          "indexed": false,
          "internalType": "uint256[]",
          "name": "shares",
          "type": "uint256[]"
        }
      ],
      "name": "SplitCreated",
      "type": "event"
    },
    {
      "inputs": [
        {
          "internalType": "bytes32",
          "name": "taskId",
          "type": "bytes32"
        },
        {
          "internalType": "address[]",
          "name": "payees",
          "type": "address[]"
        },
        {
          "internalType": "uint256[]",
          "name": "shares",
          "type": "uint256[]"
        },
        {
          "internalType": "bool",
          "name": "isERC20",
          "type": "bool"
        },
        {
          "internalType": "address",
          "name": "token",
          "type": "address"
        }
      ],
      "name": "createSplit",
      "outputs": [],
      "stateMutability": "payable",
      "type": "function"
    },
    {
      "inputs": [
        {
          "internalType": "bytes32",
          "name": "taskId",
          "type": "bytes32"
        }
      ],
      "name": "getSplit",
      "outputs": [
        {
          "components": [
            {
              "internalType": "bytes32",
              "name": "taskId",
              "type": "bytes32"
            },
            {
              "internalType": "address[]",
              "name": "payees",
              "type": "address[]"
            },
            {
              "internalType": "uint256[]",
              "name": "shares",
              "type": "uint256[]"
            },
            {
              "internalType": "uint256",
              "name": "totalShares",
              "type": "uint256"
            },
            {
              "internalType": "uint256",
              "name": "totalReleased",
              "type": "uint256"
            },
            {
              "internalType": "bool",
              "name": "isERC20",
              "type": "bool"
            },
            {
              "internalType": "address",
              "name": "token",
              "type": "address"
            }
          ],
          "internalType": "struct AgentPaymentSplitter.Split",
          "name": "",
          "type": "tuple"
        }
      ],
      "stateMutability": "view",
      "type": "function"
    },
    {
      "inputs": [],
      "name": "owner",
      "outputs": [
        {
          "internalType": "address",
          "name": "",
          "type": "address"
        }
      ],
      "stateMutability": "view",
      "type": "function"
    },
    {
      "inputs": [
        {
          "internalType": "bytes32",
          "name": "taskId",
          "type": "bytes32"
        },
        {
          "internalType": "address",
          "name": "payee",
          "type": "address"
        }
      ],
      "name": "pendingPayment",
      "outputs": [
        {
          "internalType": "uint256",
          "name": "",
          "type": "uint256"
        }
      ],
      "stateMutability": "view",
      "type": "function"
    },
    {
      "inputs": [
        {
          "internalType": "bytes32",
          "name": "taskId",
          "type": "bytes32"
        },
        {
          "internalType": "address payable",
          "name": "payee",
          "type": "address"
        }
      ],
      "name": "release",
      "outputs": [],
      "stateMutability": "nonpayable",
      "type": "function"
    },
    {
      "inputs": [
        {
          "internalType": "bytes32",
          "name": "",
          "type": "bytes32"
        },
        {
          "internalType": "address",
          "name": "",
          "type": "address"
        }
      ],
      "name": "released",
      "outputs": [
        {
          "internalType": "uint256",
          "name": "",
          "type": "uint256"
        }
      ],
      "stateMutability": "view",
      "type": "function"
    },
    {
      "inputs": [],
      "name": "renounceOwnership",
      "outputs": [],
      "stateMutability": "nonpayable",
      "type": "function"
    },
    {
      "inputs": [
        {
          "internalType": "bytes32",
          "name": "",
          "type": "bytes32"
        }
      ],
      "name": "splits",
      "outputs": [
        {
          "internalType": "bytes32",
          "name": "taskId",
          "type": "bytes32"
        },
        {
          "internalType": "uint256",
          "name": "totalShares",
          "type": "uint256"
        },
        {
          "internalType": "uint256",
          "name": "totalReleased",
          "type": "uint256"
        },
        {
          "internalType": "bool",
          "name": "isERC20",
          "type": "bool"
        },
        {
          "internalType": "address",
          "name": "token",
          "type": "address"
        }
      ],
      "stateMutability": "view",
      "type": "function"
    },
    {
      "inputs": [
        {
          "internalType": "address",
          "name": "newOwner",
          "type": "address"
        }
      ],
      "name": "transferOwnership",
      "outputs": [],
      "stateMutability": "nonpayable",
      "type": "function"
    }
  ],
  "bytecode": "0x608060405234801561001057600080fd5b50338061003757604051631e4fbdf760e01b81526000600482015260240160405180910390fd5b61004081610046565b50610096565b600080546001600160a01b038381166001600160a01b0319831681178455604051919092169283917f8be0079c531659141344cd1fd0a4f28419497f9722a3daafe3b4186f6b6457e09190a35050565b611219806100a56000396000f3fe6080604052600436106100865760003560e01c806380823b3d1161005957806380823b3d146101225780638da5cb5b1461015a5780639321da7314610182578063a72bc06414610195578063f2fde38b1461021d57600080fd5b80631bbdcfd31461008b5780635b6d6c1d146100ad5780636f388d86146100e0578063715018a61461010d575b600080fd5b34801561009757600080fd5b506100ab6100a6366004610d2f565b61023d565b005b3480156100b957600080fd5b506100cd6100c8366004610d2f565b610602565b6040519081526020015b60405180910390f35b3480156100ec57600080fd5b506101006100fb366004610d6f565b61076d565b6040516100d79190610dc3565b34801561011957600080fd5b506100ab6108cd565b34801561012e57600080fd5b506100cd61013d366004610d2f565b600260209081526000928352604080842090915290825290205481565b34801561016657600080fd5b506000546040516001600160a01b0390911681526020016100d7565b6100ab610190366004610f72565b6108e1565b3480156101a157600080fd5b506101ea6101b0366004610d6f565b60016020526000908152604090208054600382015460048301546005909301549192909160ff81169061010090046001600160a01b031685565b60408051958652602086019490945292840191909152151560608301526001600160a01b0316608082015260a0016100d7565b34801561022957600080fd5b506100ab610238366004611061565b610b2e565b60008281526001602081905260409091209081015461029a5760405162461bcd60e51b815260206004820152601460248201527314dc1b1a5d08191bd95cc81b9bdd08195e1a5cdd60621b60448201526064015b60405180910390fd5b60006102a68484610b6c565b600183015490915081106102ea5760405162461bcd60e51b815260206004820152600b60248201526a4e6f74206120706179656560a81b6044820152606401610291565b600582015460009060ff1661030d576004830154610308904761109b565b610393565b60048381015460058501546040516370a0823160e01b8152309381019390935290916101009091046001600160a01b0316906370a0823190602401602060405180830381865afa158015610365573d6000803e3d6000fd5b505050506040513d601f19601f8201168201806040525081019061038991906110ae565b610393919061109b565b60008681526002602081815260408084206001600160a01b038a168552909152822054600387015491870180549495509293909290869081106103d8576103d86110c7565b9060005260206000200154846103ee91906110dd565b6103f891906110f4565b6104029190611116565b9050600081116104455760405162461bcd60e51b815260206004820152600e60248201526d4e6f207061796d656e742064756560901b6044820152606401610291565b60008681526002602090815260408083206001600160a01b03891684529091528120805483929061047790849061109b565b9250508190555080846004016000828254610492919061109b565b9091555050600584015460ff161561057e57600584015460405163a9059cbb60e01b81526001600160a01b038781166004830152602482018490526101009092049091169063a9059cbb906044016020604051808303816000875af11580156104ff573d6000803e3d6000fd5b505050506040513d601f19601f820116820180604052508101906105239190611129565b5060058401546040516001600160a01b0361010090920482169187169088907f9857a17142431df0ebaf30ea41afe721f23ef7a88559ccc7397115426ef332c8906105719086815260200190565b60405180910390a46105fa565b6040516001600160a01b0386169082156108fc029083906000818181858888f193505050501580156105b4573d6000803e3d6000fd5b50846001600160a01b0316867f1e170c3b430cc6fdcdaa453c42619ac587e13793aa81a489fab9ebd7019c2efb836040516105f191815260200190565b60405180910390a35b505050505050565b60008281526001602081905260408220908101548203610626576000915050610767565b60006106328585610b6c565b6001830154909150811061064b57600092505050610767565b600582015460009060ff1661066e576004830154610669904761109b565b6106f4565b60048381015460058501546040516370a0823160e01b8152309381019390935290916101009091046001600160a01b0316906370a0823190602401602060405180830381865afa1580156106c6573d6000803e3d6000fd5b505050506040513d601f19601f820116820180604052508101906106ea91906110ae565b6106f4919061109b565b60008781526002602081815260408084206001600160a01b038b1685529091529091205460038601549186018054939450909285908110610737576107376110c7565b90600052602060002001548361074d91906110dd565b61075791906110f4565b6107619190611116565b93505050505b92915050565b6107bb6040518060e00160405280600080191681526020016060815260200160608152602001600081526020016000815260200160001515815260200160006001600160a01b031681525090565b600082815260016020818152604092839020835160e081018552815481529281018054855181850281018501909652808652939491938584019383018282801561082e57602002820191906000526020600020905b81546001600160a01b03168152600190910190602001808311610810575b505050505081526020016002820180548060200260200160405190810160405280929190818152602001828054801561088657602002820191906000526020600020905b815481526020019060010190808311610872575b5050509183525050600382015460208201526004820154604082015260059091015460ff81161515606083015261010090046001600160a01b031660809091015292915050565b6108d5610be8565b6108df6000610c15565b565b6108e9610be8565b82518451146109445760405162461bcd60e51b815260206004820152602160248201527f50617965657320616e6420736861726573206c656e677468206d69736d6174636044820152600d60fb1b6064820152608401610291565b60008451116109815760405162461bcd60e51b81526020600482015260096024820152684e6f2070617965657360b81b6044820152606401610291565b6000805b84518110156109c7578481815181106109a0576109a06110c7565b6020026020010151826109b3919061109b565b9150806109bf81611146565b915050610985565b5082610a0b5760003411610a0b5760405162461bcd60e51b815260206004820152600b60248201526a139bc8115512081cd95b9d60aa1b6044820152606401610291565b6040805160e08101825287815260208082018881528284018890526060830185905260006080840181905287151560a08501526001600160a01b03871660c08501528a81526001808452949020835181559051805193949193610a7693928501929190910190610c65565b5060408201518051610a92916002840191602090910190610cca565b50606082015160038201556080820151600482015560a08201516005909101805460c0909301516001600160a01b031661010002610100600160a81b0319921515929092166001600160a81b03199093169290921717905560405186907f7f2d588ab12eb208acffa440087f4a762affb613b2d1d397022b84129bcf171590610b1e908890889061115f565b60405180910390a2505050505050565b610b36610be8565b6001600160a01b038116610b6057604051631e4fbdf760e01b815260006004820152602401610291565b610b6981610c15565b50565b6000828152600160205260408120815b6001820154811015610bdc57836001600160a01b0316826001018281548110610ba757610ba76110c7565b6000918252602090912001546001600160a01b031603610bca5791506107679050565b80610bd481611146565b915050610b7c565b50600101549392505050565b6000546001600160a01b031633146108df5760405163118cdaa760e01b8152336004820152602401610291565b600080546001600160a01b038381166001600160a01b0319831681178455604051919092169283917f8be0079c531659141344cd1fd0a4f28419497f9722a3daafe3b4186f6b6457e09190a35050565b828054828255906000526020600020908101928215610cba579160200282015b82811115610cba57825182546001600160a01b0319166001600160a01b03909116178255602090920191600190910190610c85565b50610cc6929150610d05565b5090565b828054828255906000526020600020908101928215610cba579160200282015b82811115610cba578251825591602001919060010190610cea565b5b80821115610cc65760008155600101610d06565b6001600160a01b0381168114610b6957600080fd5b60008060408385031215610d4257600080fd5b823591506020830135610d5481610d1a565b809150509250929050565b8035610d6a81610d1a565b919050565b600060208284031215610d8157600080fd5b5035919050565b600081518084526020808501945080840160005b83811015610db857815187529582019590820190600101610d9c565b509495945050505050565b60208082528251828201528281015160e06040840152805161010084018190526000929182019083906101208601905b80831015610e1c5783516001600160a01b03168252928401926001929092019190840190610df3565b506040870151868203601f190160608801529350610e3a8185610d88565b935050505060608401516080840152608084015160a084015260a0840151610e6660c085018215159052565b5060c08401516001600160a01b03811660e0850152509392505050565b634e487b7160e01b600052604160045260246000fd5b604051601f8201601f1916810167ffffffffffffffff81118282101715610ec257610ec2610e83565b604052919050565b600067ffffffffffffffff821115610ee457610ee4610e83565b5060051b60200190565b600082601f830112610eff57600080fd5b81356020610f14610f0f83610eca565b610e99565b82815260059290921b84018101918181019086841115610f3357600080fd5b8286015b84811015610f4e5780358352918301918301610f37565b509695505050505050565b8015158114610b6957600080fd5b8035610d6a81610f59565b600080600080600060a08688031215610f8a57600080fd5b8535945060208087013567ffffffffffffffff80821115610faa57600080fd5b818901915089601f830112610fbe57600080fd5b8135610fcc610f0f82610eca565b81815260059190911b8301840190848101908c831115610feb57600080fd5b938501935b8285101561101257843561100381610d1a565b82529385019390850190610ff0565b98505050604089013592508083111561102a57600080fd5b505061103888828901610eee565b93505061104760608701610f67565b915061105560808701610d5f565b90509295509295909350565b60006020828403121561107357600080fd5b813561107e81610d1a565b9392505050565b634e487b7160e01b600052601160045260246000fd5b8082018082111561076757610767611085565b6000602082840312156110c057600080fd5b5051919050565b634e487b7160e01b600052603260045260246000fd5b808202811582820484141761076757610767611085565b60008261111157634e487b7160e01b600052601260045260246000fd5b500490565b8181038181111561076757610767611085565b60006020828403121561113b57600080fd5b815161107e81610f59565b60006001820161115857611158611085565b5060010190565b604080825283519082018190526000906020906060840190828701845b828110156111a15781516001600160a01b03168452928401929084019060010161117c565b5050508381038285015284518082528583019183019060005b818110156111d6578351835292840192918401916001016111ba565b509097965050505050505056fea2646970667358221220c4b64d585293f6748fedbb2b0d02aa2ae86f56b2685f48d9ba727b2efef0ddeb64736f6c63430008140033",
  "linkReferences": {},
  "deployedLinkReferences": {}
}