{
  "_format": "hh-sol-artifact-1",
  "contractName": "AgentCoordinationDAO",
  "sourceName": "contracts/AgentCoordinationDAO.sol",
  "abi": [
    {
      "inputs": [
        {
          "internalType": "address",
          "name": "_governanceToken",
          "type": "address"
        },
        {
          "internalType": "address",
          "name": "_agentRegistry",
          "type": "address"
        }
      ],
      "stateMutability": "nonpayable",
      "type": "constructor"
    },
    {
      "inputs": [
        {
          "internalType": "address",
          "name": "owner",
          "type": "address"
        }
      ],
      "name": "OwnableInvalidOwner",
      "type": "error"
    },
    {
      "inputs": [
        {
          "internalType": "address",
          "name": "account",
          "type": "address"
        }
      ],
      "name": "OwnableUnauthorizedAccount",
      "type": "error"
    },
    {
      "inputs": [],
      "name": "ReentrancyGuardReentrantCall",
      "type": "error"
    },
    {
      "anonymous": false,
      "inputs": [
        {
          "indexed": true,
          "internalType": "address",
          "name": "delegator",
          "type": "address"
        },
        {
          "indexed": true,
          "internalType": "address",
          "name": "fromDelegate",
          "type": "address"
        },
        {
          "indexed": true,
          "internalType": "address",
          "name": "toDelegate",
          "type": "address"
        }
      ],
      "name": "DelegateChanged",
      "type": "event"
    },
    {
      "anonymous": false,
      "inputs": [
        {
          "indexed": true,
          "internalType": "address",
          "name": "previousOwner",
          "type": "address"
        },
        {
          "indexed": true,
          "internalType": "address",
          "name": "newOwner",
          "type": "address"
        }
      ],
      "name": "OwnershipTransferred",
      "type": "event"
    },
    {
      "anonymous": false,
      "inputs": [
        {
          "indexed": true,
          "internalType": "bytes32",
          "name": "proposalId",
          "type": "bytes32"
        }
      ],
      "name": "ProposalCanceled",
      "type": "event"
    },
    {
      "anonymous": false,
      "inputs": [
        {
          "indexed": true,
          "internalType": "bytes32",
          "name": "proposalId",
          "type": "bytes32"
        },
        {
          "indexed": true,
          "internalType": "address",
          "name": "proposer",
          "type": "address"
        },
        {
          "indexed": false,
          "internalType": "string",
          "name": "title",
          "type": "string"
        },
        {
          "indexed": false,
          "internalType": "uint256",
          "name": "startBlock",
          "type": "uint256"
        },
        {
          "indexed": false,
          "internalType": "uint256",
          "name": "endBlock",
          "type": "uint256"
        }
      ],
      "name": "ProposalCreated",
      "type": "event"
    },
    {
      "anonymous": false,
      "inputs": [
        {
          "indexed": true,
          "internalType": "bytes32",
          "name": "proposalId",
          "type": "bytes32"
        }
      ],
      "name": "ProposalExecuted",
      "type": "event"
    },
    {
      "anonymous": false,
      "inputs": [
        {
          "indexed": true,
          "internalType": "address",
          "name": "voter",
          "type": "address"
        },
        {
          "indexed": true,
          "internalType": "bytes32",
          "name": "proposalId",
          "type": "bytes32"
        },
        {
          "indexed": false,
          "internalType": "uint8",
          "name": "voteType",
          "type": "uint8"
        },
        {
          "indexed": false,
          "internalType": "uint256",
          "name": "votes",
          "type": "uint256"
        }
      ],
      "name": "VoteCast",
      "type": "event"
    },
    {
      "inputs": [],
      "name": "agentRegistry",
      "outputs": [
        {
          "internalType": "contract AgentRegistry",
          "name": "",
          "type": "address"
        }
      ],
      "stateMutability": "view",
      "type": "function"
    },
    {
      "inputs": [
        {
          "internalType": "bytes32",
          "name": "proposalId",
          "type": "bytes32"
        }
      ],
      "name": "cancel",
      "outputs": [],
      "stateMutability": "nonpayable",
      "type": "function"
    },
    {
      "inputs": [
        {
          "internalType": "bytes32",
          "name": "proposalId",
          "type": "bytes32"
        },
        {
          "internalType": "uint8",
          "name": "voteType",
          "type": "uint8"
        }
      ],
      "name": "castVote",
      "outputs": [],
      "stateMutability": "nonpayable",
      "type": "function"
    },
    {
      "inputs": [
        {
          "internalType": "address",
          "name": "delegatee",
          "type": "address"
        }
      ],
      "name": "delegate",
      "outputs": [],
      "stateMutability": "nonpayable",
      "type": "function"
    },
    {
      "inputs": [
        {
          "internalType": "address",
          "name": "",
          "type": "address"
        }
      ],
      "name": "delegates",
      "outputs": [
        {
          "internalType": "address",
          "name": "",
          "type": "address"
        }
      ],
      "stateMutability": "view",
      "type": "function"
    },
    {
      "inputs": [
        {
          "internalType": "bytes32",
          "name": "proposalId",
          "type": "bytes32"
        }
      ],
      "name": "execute",
      "outputs": [],
      "stateMutability": "nonpayable",
      "type": "function"
    },
    {
      "inputs": [
        {
          "internalType": "bytes32",
          "name": "proposalId",
          "type": "bytes32"
        }
      ],
      "name": "getProposal",
      "outputs": [
        {
          "components": [
            {
              "internalType": "bytes32",
              "name": "proposalId",
              "type": "bytes32"
            },
            {
              "internalType": "address",
              "name": "proposer",
              "type": "address"
            },
            {
              "internalType": "string",
              "name": "title",
              "type": "string"
            },
            {
              "internalType": "string",
              "name": "description",
              "type": "string"
            },
            {
              "internalType": "uint256",
              "name": "forVotes",
              "type": "uint256"
            },
            {
              "internalType": "uint256",
              "name": "againstVotes",
              "type": "uint256"
            },
            {
              "internalType": "uint256",
              "name": "abstainVotes",
              "type": "uint256"
            },
            {
              "internalType": "uint256",
              "name": "startBlock",
              "type": "uint256"
            },
            {
              "internalType": "uint256",
              "name": "endBlock",
              "type": "uint256"
            },
            {
              "internalType": "bool",
              "name": "executed",
              "type": "bool"
            },
            {
              "internalType": "bool",
              "name": "canceled",
              "type": "bool"
            },
            {
              "internalType": "enum AgentCoordinationDAO.ProposalState",
              "name": "state",
              "type": "uint8"
            }
          ],
          "internalType": "struct AgentCoordinationDAO.ProposalView",
          "name": "",
          "type": "tuple"
        }
      ],
      "stateMutability": "view",
      "type": "function"
    },
    {
      "inputs": [],
      "name": "getProposalCount",
      "outputs": [
        {
          "internalType": "uint256",
          "name": "",
          "type": "uint256"
        }
      ],
      "stateMutability": "view",
      "type": "function"
    },
    {
      "inputs": [
        {
          "internalType": "uint256",
          "name": "offset",
          "type": "uint256"
        },
        {
          "internalType": "uint256",
          "name": "limit",
          "type": "uint256"
        }
      ],
      "name": "getProposals",
      "outputs": [
        {
          "components": [
            {
              "internalType": "bytes32",
              "name": "proposalId",
              "type": "bytes32"
            },
            {
              "internalType": "address",
              "name": "proposer",
              "type": "address"
            },
            {
              "internalType": "string",
              "name": "title",
              "type": "string"
            },
            {
              "internalType": "string",
              "name": "description",
              "type": "string"
            },
            {
              "internalType": "uint256",
              "name": "forVotes",
              "type": "uint256"
            },
            {
              "internalType": "uint256",
              "name": "againstVotes",
              "type": "uint256"
            },
            {
              "internalType": "uint256",
              "name": "abstainVotes",
              "type": "uint256"
            },
            {
              "internalType": "uint256",
              "name": "startBlock",
              "type": "uint256"
            },
            {
              "internalType": "uint256",
              "name": "endBlock",
              "type": "uint256"
            },
            {
              "internalType": "bool",
              "name": "executed",
              "type": "bool"
            },
            {
              "internalType": "bool",
              "name": "canceled",
              "type": "bool"
            },
            {
              "internalType": "enum AgentCoordinationDAO.ProposalState",
              "name": "state",
              "type": "uint8"
            }
          ],
          "internalType": "struct AgentCoordinationDAO.ProposalView[]",
          "name": "",
          "type": "tuple[]"
        }
      ],
      "stateMutability": "view",
      "type": "function"
    },
    {
      "inputs": [
        {
          "internalType": "address",
          "name": "account",
          "type": "address"
        }
      ],
      "name": "getVotes",
      "outputs": [
        {
          "internalType": "uint256",
          "name": "",
          "type": "uint256"
        }
      ],
      "stateMutability": "view",
      "type": "function"
    },
    {
      "inputs": [],
      "name": "governanceToken",
      "outputs": [
        {
          "internalType": "contract IERC20",
          "name": "",
          "type": "address"
        }
      ],
      "stateMutability": "view",
      "type": "function"
    },
    {
      "inputs": [
        {
          "internalType": "bytes32",
          "name": "proposalId",
          "type": "bytes32"
        },
        {
          "internalType": "address",
          "name": "account",
          "type": "address"
        }
      ],
      "name": "hasVoted",
      "outputs": [
        {
          "internalType": "bool",
          "name": "",
          "type": "bool"
        }
      ],
      "stateMutability": "view",
      "type": "function"
    },
    {
      "inputs": [],
      "name": "owner",
      "outputs": [
        {
          "internalType": "address",
          "name": "",
          "type": "address"
        }
      ],
      "stateMutability": "view",
      "type": "function"
    },
    {
      "inputs": [
        {
          "internalType": "uint256",
          "name": "",
          "type": "uint256"
        }
      ],
      "name": "proposalIds",
      "outputs": [
        {
          "internalType": "bytes32",
          "name": "",
          "type": "bytes32"
        }
      ],
      "stateMutability": "view",
      "type": "function"
    },
    {
      "inputs": [],
      "name": "proposalThreshold",
      "outputs": [
        {
          "internalType": "uint256",
          "name": "",
          "type": "uint256"
        }
      ],
      "stateMutability": "view",
      "type": "function"
    },
    {
      "inputs": [
        {
          "internalType": "bytes32",
          "name": "",
          "type": "bytes32"
        }
      ],
      "name": "proposals",
      "outputs": [
        {
          "internalType": "bytes32",
          "name": "proposalId",
          "type": "bytes32"
        },
        {
          "internalType": "address",
          "name": "proposer",
          "type": "address"
        },
        {
          "internalType": "string",
          "name": "title",
          "type": "string"
        },
        {
          "internalType": "string",
          "name": "description",
          "type": "string"
        },
        {
          "internalType": "bytes",
          "name": "callData",
          "type": "bytes"
        },
        {
          "internalType": "address",
          "name": "target",
          "type": "address"
        },
        {
          "internalType": "uint256",
          "name": "forVotes",
          "type": "uint256"
        },
        {
          "internalType": "uint256",
          "name": "againstVotes",
          "type": "uint256"
        },
        {
          "internalType": "uint256",
          "name": "abstainVotes",
          "type": "uint256"
        },
        {
          "internalType": "uint256",
          "name": "startBlock",
          "type": "uint256"
        },
        {
          "internalType": "uint256",
          "name": "endBlock",
          "type": "uint256"
        },
        {
          "internalType": "bool",
          "name": "executed",
          "type": "bool"
        },
        {
          "internalType": "bool",
          "name": "canceled",
          "type": "bool"
        }
      ],
      "stateMutability": "view",
      "type": "function"
    },
    {
      "inputs": [
        {
          "internalType": "string",
          "name": "title",
          "type": "string"
        },
        {
          "internalType": "string",
          "name": "description",
          "type": "string"
        },
        {
          "internalType": "address",
          "name": "target",
          "type": "address"
        },
        {
          "internalType": "bytes",
          "name": "callData",
          "type": "bytes"
        }
      ],
      "name": "propose",
      "outputs": [
        {
          "internalType": "bytes32",
          "name": "",
          "type": "bytes32"
        }
      ],
      "stateMutability": "nonpayable",
      "type": "function"
    },
    {
      "inputs": [],
      "name": "quorumVotes",
      "outputs": [
        {
          "internalType": "uint256",
          "name": "",
          "type": "uint256"
        }
      ],
      "stateMutability": "view",
      "type": "function"
    },
    {
      "inputs": [],
      "name": "renounceOwnership",
      "outputs": [],
      "stateMutability": "nonpayable",
      "type": "function"
    },
    {
      "inputs": [
        {
          "internalType": "bytes32",
          "name": "proposalId",
          "type": "bytes32"
        }
      ],
      "name": "state",
      "outputs": [
        {
          "internalType": "enum AgentCoordinationDAO.ProposalState",
          "name": "",
          "type": "uint8"
        }
      ],
      "stateMutability": "view",
      "type": "function"
    },
    {
      "inputs": [
        {
          "internalType": "address",
          "name": "newOwner",
          "type": "address"
        }
      ],
      "name": "transferOwnership",
      "outputs": [],
      "stateMutability": "nonpayable",
      "type": "function"
    },
    {
      "inputs": [
        {
          "internalType": "uint256",
          "name": "newThreshold",
          "type": "uint256"
        }
      ],
      "name": "updateProposalThreshold",
      "outputs": [],
      "stateMutability": "nonpayable",
      "type": "function"
    },
    {
      "inputs": [
        {
          "internalType": "uint256",
          "name": "newQuorum",
          "type": "uint256"
        }
      ],
      "name": "updateQuorumVotes",
      "outputs": [],
      "stateMutability": "nonpayable",
      "type": "function"
    },
    {
      "inputs": [
        {
          "internalType": "uint256",
          "name": "newVotingDelay",
          "type": "uint256"
        }
      ],
      "name": "updateVotingDelay",
      "outputs": [],
      "stateMutability": "nonpayable",
      "type": "function"
    },
    {
      "inputs": [
        {
          "internalType": "uint256",
          "name": "newVotingPeriod",
          "type": "uint256"
        }
      ],
      "name": "updateVotingPeriod",
      "outputs": [],
      "stateMutability": "nonpayable",
      "type": "function"
    },
    {
      "inputs": [],
      "name": "votingDelay",
      "outputs": [
        {
          "internalType": "uint256",
          "name": "",
          "type": "uint256"
        }
      ],
      "stateMutability": "view",
      "type": "function"
    },
    {
      "inputs": [],
      "name": "votingPeriod",
      "outputs": [
        {
          "internalType": "uint256",
          "name": "",
          "type": "uint256"
        }
      ],
      "stateMutability": "view",
      "type": "function"
    },
    {
      "inputs": [
        {
          "internalType": "address",
          "name": "",
          "type": "address"
        }
      ],
      "name": "votingPower",
      "outputs": [
        {
          "internalType": "uint256",
          "name": "",
          "type": "uint256"
        }
      ],
      "stateMutability": "view",
      "type": "function"
    }
  ],
  "bytecode": "0x60806040526001600355619d80600455683635c9adc5dea0000060055569152d02c7e14af68000006006553480156200003757600080fd5b5060405162002124380380620021248339810160408190526200005a9162000150565b33806200008157604051631e4fbdf760e01b81526000600482015260240160405180910390fd5b6200008c81620000e3565b5060017f9b779b17422d0df92223018b32b4d1fa46e071723d6817e2486d003becc55f0055600780546001600160a01b039384166001600160a01b0319918216179091556008805492909316911617905562000188565b600080546001600160a01b038381166001600160a01b0319831681178455604051919092169283917f8be0079c531659141344cd1fd0a4f28419497f9722a3daafe3b4186f6b6457e09190a35050565b80516001600160a01b03811681146200014b57600080fd5b919050565b600080604083850312156200016457600080fd5b6200016f8362000133565b91506200017f6020840162000133565b90509250929050565b611f8c80620001986000396000f3fe608060405234801561001057600080fd5b50600436106101c45760003560e01c80638da5cb5b116100f9578063c08cc02d11610097578063e751f27111610071578063e751f2711461041b578063ef00ef431461042e578063f2fde38b14610441578063f96dae0a1461045457600080fd5b8063c08cc02d146103ed578063c4d252f5146103f5578063de7b16381461040857600080fd5b8063aadc3b72116100d3578063aadc3b7214610364578063b4b0713e146103b1578063b58131b0146103c4578063c07473f6146103cd57600080fd5b80638da5cb5b1461032d5780639ab24eb01461033e5780639b644a231461035157600080fd5b806357ad6279116101665780635e3b4365116101405780635e3b4365146102d257806361d585da146102f257806363d61a1914610312578063715018a61461032557600080fd5b806357ad627914610283578063587cde1e146102965780635c19a95c146102bf57600080fd5b806332ed5b12116101a257806332ed5b12146102195780633932abb114610245578063430694cf1461024e578063499241161461026e57600080fd5b806302a251a3146101c95780630d1cfcae146101e557806324bc1a6414610210575b600080fd5b6101d260045481565b6040519081526020015b60405180910390f35b6008546101f8906001600160a01b031681565b6040516001600160a01b0390911681526020016101dc565b6101d260065481565b61022c61022736600461160f565b610467565b6040516101dc9d9c9b9a99989796959493929190611678565b6101d260035481565b61026161025c36600461160f565b61067b565b6040516101dc9190611832565b61028161027c36600461160f565b610853565b005b61028161029136600461160f565b610860565b6101f86102a4366004611861565b6009602052600090815260409020546001600160a01b031681565b6102816102cd366004611861565b61086d565b6102e56102e036600461187e565b6109d0565b6040516101dc91906118a0565b61030561030036600461160f565b610b2e565b6040516101dc9190611902565b61028161032036600461160f565b610beb565b610281610bf8565b6000546001600160a01b03166101f8565b6101d261034c366004611861565b610c0c565b6101d261035f36600461160f565b610cc0565b6103a1610372366004611910565b60008281526001602090815260408083206001600160a01b0385168452600c0190915290205460ff1692915050565b60405190151581526020016101dc565b6102816103bf366004611940565b610ce1565b6101d260055481565b6101d26103db366004611861565b600a6020526000908152604090205481565b6002546101d2565b61028161040336600461160f565b610f43565b6101d2610416366004611a62565b611051565b61028161042936600461160f565b6112c3565b61028161043c36600461160f565b611459565b61028161044f366004611861565b611466565b6007546101f8906001600160a01b031681565b60016020819052600091825260409091208054918101546002820180546001600160a01b03909216929161049a90611b13565b80601f01602080910402602001604051908101604052809291908181526020018280546104c690611b13565b80156105135780601f106104e857610100808354040283529160200191610513565b820191906000526020600020905b8154815290600101906020018083116104f657829003601f168201915b50505050509080600301805461052890611b13565b80601f016020809104026020016040519081016040528092919081815260200182805461055490611b13565b80156105a15780601f10610576576101008083540402835291602001916105a1565b820191906000526020600020905b81548152906001019060200180831161058457829003601f168201915b5050505050908060040180546105b690611b13565b80601f01602080910402602001604051908101604052809291908181526020018280546105e290611b13565b801561062f5780601f106106045761010080835404028352916020019161062f565b820191906000526020600020905b81548152906001019060200180831161061257829003601f168201915b5050505060058301546006840154600785015460088601546009870154600a880154600b9098015496976001600160a01b03909516969395509193909260ff808216916101009004168d565b61068361158e565b60008281526001602081815260409283902083516101808101855281548152928101546001600160a01b03169183019190915260028101805491938301916106ca90611b13565b80601f01602080910402602001604051908101604052809291908181526020018280546106f690611b13565b80156107435780601f1061071857610100808354040283529160200191610743565b820191906000526020600020905b81548152906001019060200180831161072657829003601f168201915b5050505050815260200182600301805461075c90611b13565b80601f016020809104026020016040519081016040528092919081815260200182805461078890611b13565b80156107d55780601f106107aa576101008083540402835291602001916107d5565b820191906000526020600020905b8154815290600101906020018083116107b857829003601f168201915b505050918352505060068301546020820152600783015460408201526008830154606082015260098301546080820152600a83015460a0820152600b83015460ff808216151560c08401526101009182900416151560e08301520161083985610b2e565b600781111561084a5761084a61172e565b90529392505050565b61085b6114a1565b600655565b6108686114a1565b600555565b336000818152600960205260408082205460075491516370a0823160e01b815260048101949094526001600160a01b03908116939116906370a0823190602401602060405180830381865afa1580156108ca573d6000803e3d6000fd5b505050506040513d601f19601f820116820180604052508101906108ee9190611b4d565b33600090815260096020526040902080546001600160a01b0319166001600160a01b0386811691909117909155909150821615610953576001600160a01b0382166000908152600a60205260408120805483929061094d908490611b7c565b90915550505b6001600160a01b03831615610990576001600160a01b0383166000908152600a60205260408120805483929061098a908490611b8f565b90915550505b6040516001600160a01b03808516919084169033907f3134e8a2e6d97e929a7e54011ea5485d7d196dd5f0ba4d4ef95803e8e3fc257f90600090a4505050565b606060006109de8385611b8f565b6002549091508111156109f057506002545b60006109fc8583611b7c565b67ffffffffffffffff811115610a1457610a1461196b565b604051908082528060200260200182016040528015610a4d57816020015b610a3a61158e565b815260200190600190039081610a325790505b509050845b82811015610b2357306001600160a01b031663430694cf60028381548110610a7c57610a7c611ba2565b90600052602060002001546040518263ffffffff1660e01b8152600401610aa591815260200190565b600060405180830381865afa158015610ac2573d6000803e3d6000fd5b505050506040513d6000823e601f3d908101601f19168201604052610aea9190810190611c34565b82610af58884611b7c565b81518110610b0557610b05611ba2565b60200260200101819052508080610b1b90611d54565b915050610a52565b509150505b92915050565b6000818152600160205260408120600b810154610100900460ff1615610b575750600292915050565b600b81015460ff1615610b6d5750600692915050565b80600901544311610b815750600092915050565b80600a01544311610b955750600192915050565b8060070154816006015411610bad5750600392915050565b600654816008015482600701548360060154610bc99190611b8f565b610bd39190611b8f565b1015610be25750600392915050565b50600492915050565b610bf36114a1565b600355565b610c006114a1565b610c0a60006114ce565b565b6001600160a01b0381811660009081526009602052604081205490911615610c3657506000919050565b6001600160a01b038281166000818152600a6020526040908190205460075491516370a0823160e01b815260048101939093529216906370a0823190602401602060405180830381865afa158015610c92573d6000803e3d6000fd5b505050506040513d601f19601f82011682018060405250810190610cb69190611b4d565b610b289190611b8f565b60028181548110610cd057600080fd5b600091825260209091200154905081565b60028160ff161115610d2e5760405162461bcd60e51b8152602060048201526011602482015270496e76616c696420766f7465207479706560781b60448201526064015b60405180910390fd5b6001610d3983610b2e565b6007811115610d4a57610d4a61172e565b14610d8b5760405162461bcd60e51b8152602060048201526011602482015270566f74696e67206e6f742061637469766560781b6044820152606401610d25565b6000828152600160209081526040808320338452600c81019092529091205460ff1615610dea5760405162461bcd60e51b815260206004820152600d60248201526c105b1c9958591e481d9bdd1959609a1b6044820152606401610d25565b6000610df533610c0c565b905060008111610e395760405162461bcd60e51b815260206004820152600f60248201526e2737903b37ba34b733903837bbb2b960891b6044820152606401610d25565b336000908152600c830160205260409020805460ff1916600117905560ff83166002811115610e6a57610e6a61172e565b336000908152600d840160205260409020805460ff19166001836002811115610e9557610e9561172e565b02179055508260ff16600003610ec45780826007016000828254610eb99190611b8f565b90915550610efd9050565b8260ff16600103610ee35780826006016000828254610eb99190611b8f565b80826008016000828254610ef79190611b8f565b90915550505b6040805160ff8516815260208101839052859133917f40ed5735f79b599a9ada3809d8823c0600947f780a354a56d75a2878f8c50f1e910160405180910390a350505050565b6000818152600160208190526040909120908101546001600160a01b0316331480610f7857506000546001600160a01b031633145b610fb55760405162461bcd60e51b815260206004820152600e60248201526d139bdd08185d5d1a1bdc9a5e995960921b6044820152606401610d25565b6006610fc083610b2e565b6007811115610fd157610fd161172e565b036110115760405162461bcd60e51b815260206004820152601060248201526f105b1c9958591e48195e1958dd5d195960821b6044820152606401610d25565b600b8101805461ff00191661010017905560405182907f88ae8321c96cee88d802409f3677f889d8a6743c4631b069fe600a3a9b07e02090600090a25050565b6005546007546040516370a0823160e01b8152336004820152600092916001600160a01b0316906370a0823190602401602060405180830381865afa15801561109e573d6000803e3d6000fd5b505050506040513d601f19601f820116820180604052508101906110c29190611b4d565b10156111105760405162461bcd60e51b815260206004820152601860248201527f42656c6f772070726f706f73616c207468726573686f6c6400000000000000006044820152606401610d25565b600033864260405160200161112793929190611d6d565b60408051601f198184030181529181528151602092830120600081815260019384905291909120909101549091506001600160a01b03161561119d5760405162461bcd60e51b815260206004820152600f60248201526e50726f706f73616c2065786973747360881b6044820152606401610d25565b6000600354436111ad9190611b8f565b90506000600454826111bf9190611b8f565b600084815260016020819052604090912085815590810180546001600160a01b03191633179055909150600281016111f78a82611dfb565b50600381016112068982611dfb565b50600481016112158782611dfb565b506005810180546001600160a01b0319166001600160a01b03891617905560098101839055600a8101829055600280546001810182556000919091527f405787fa12a823e0f2b7631cc41b3ba8828b3321ca811111fa75cd3aa3bb5ace01849055604051339085907fab1913d0b4da821e814deb85bc141db403dcc3c83b9c8561f1fc2315b3652734906112ae908d9088908890611ebb565b60405180910390a35091979650505050505050565b6112cb6114a1565b6112d361151e565b60046112de82610b2e565b60078111156112ef576112ef61172e565b146113355760405162461bcd60e51b8152602060048201526016602482015275141c9bdc1bdcd85b081b9bdd081cdd58d8d95959195960521b6044820152606401610d25565b6000818152600160208190526040808320600b8101805460ff1916909317909255600582015490519192916001600160a01b039091169061137a906004850190611ee0565b6000604051808303816000865af19150503d80600081146113b7576040519150601f19603f3d011682016040523d82523d6000602084013e6113bc565b606091505b50509050806114005760405162461bcd60e51b815260206004820152601060248201526f115e1958dd5d1a5bdb8819985a5b195960821b6044820152606401610d25565b60405183907f7b1bcf1ccf901a11589afff5504d59fd0a53780eed2a952adade0348985139e090600090a2505061145660017f9b779b17422d0df92223018b32b4d1fa46e071723d6817e2486d003becc55f0055565b50565b6114616114a1565b600455565b61146e6114a1565b6001600160a01b03811661149857604051631e4fbdf760e01b815260006004820152602401610d25565b611456816114ce565b6000546001600160a01b03163314610c0a5760405163118cdaa760e01b8152336004820152602401610d25565b600080546001600160a01b038381166001600160a01b0319831681178455604051919092169283917f8be0079c531659141344cd1fd0a4f28419497f9722a3daafe3b4186f6b6457e09190a35050565b61152661154c565b60027f9b779b17422d0df92223018b32b4d1fa46e071723d6817e2486d003becc55f0055565b7f9b779b17422d0df92223018b32b4d1fa46e071723d6817e2486d003becc55f0054600203610c0a57604051633ee5aeb560e01b815260040160405180910390fd5b6040518061018001604052806000801916815260200160006001600160a01b03168152602001606081526020016060815260200160008152602001600081526020016000815260200160008152602001600081526020016000151581526020016000151581526020016000600781111561160a5761160a61172e565b905290565b60006020828403121561162157600080fd5b5035919050565b60005b8381101561164357818101518382015260200161162b565b50506000910152565b60008151808452611664816020860160208601611628565b601f01601f19169290920160200192915050565b8d81526001600160a01b038d1660208201526101a0604082018190526000906116a38382018f61164c565b905082810360608401526116b7818e61164c565b905082810360808401526116cb818d61164c565b9150506116e360a083018b6001600160a01b03169052565b8860c08301528760e083015286610100830152856101208301528461014083015261171361016083018515159052565b8215156101808301529e9d5050505050505050505050505050565b634e487b7160e01b600052602160045260246000fd5b6008811061176257634e487b7160e01b600052602160045260246000fd5b9052565b600061018082518452602083015161178960208601826001600160a01b03169052565b5060408301518160408601526117a18286018261164c565b915050606083015184820360608601526117bb828261164c565b9150506080830151608085015260a083015160a085015260c083015160c085015260e083015160e0850152610100808401518186015250610120808401516118068287018215159052565b5050610140838101511515908501526101608084015161182882870182611744565b5090949350505050565b6020815260006118456020830184611766565b9392505050565b6001600160a01b038116811461145657600080fd5b60006020828403121561187357600080fd5b81356118458161184c565b6000806040838503121561189157600080fd5b50508035926020909101359150565b6000602080830181845280855180835260408601915060408160051b870101925083870160005b828110156118f557603f198886030184526118e3858351611766565b945092850192908501906001016118c7565b5092979650505050505050565b60208101610b288284611744565b6000806040838503121561192357600080fd5b8235915060208301356119358161184c565b809150509250929050565b6000806040838503121561195357600080fd5b82359150602083013560ff8116811461193557600080fd5b634e487b7160e01b600052604160045260246000fd5b604051610180810167ffffffffffffffff811182821017156119a5576119a561196b565b60405290565b604051601f8201601f1916810167ffffffffffffffff811182821017156119d4576119d461196b565b604052919050565b600067ffffffffffffffff8211156119f6576119f661196b565b50601f01601f191660200190565b6000611a17611a12846119dc565b6119ab565b9050828152838383011115611a2b57600080fd5b828260208301376000602084830101529392505050565b600082601f830112611a5357600080fd5b61184583833560208501611a04565b60008060008060808587031215611a7857600080fd5b843567ffffffffffffffff80821115611a9057600080fd5b611a9c88838901611a42565b95506020870135915080821115611ab257600080fd5b611abe88838901611a42565b945060408701359150611ad08261184c565b90925060608601359080821115611ae657600080fd5b508501601f81018713611af857600080fd5b611b0787823560208401611a04565b91505092959194509250565b600181811c90821680611b2757607f821691505b602082108103611b4757634e487b7160e01b600052602260045260246000fd5b50919050565b600060208284031215611b5f57600080fd5b5051919050565b634e487b7160e01b600052601160045260246000fd5b81810381811115610b2857610b28611b66565b80820180821115610b2857610b28611b66565b634e487b7160e01b600052603260045260246000fd5b8051611bc38161184c565b919050565b600082601f830112611bd957600080fd5b8151611be7611a12826119dc565b818152846020838601011115611bfc57600080fd5b611c0d826020830160208701611628565b949350505050565b80518015158114611bc357600080fd5b805160088110611bc357600080fd5b600060208284031215611c4657600080fd5b815167ffffffffffffffff80821115611c5e57600080fd5b908301906101808286031215611c7357600080fd5b611c7b611981565b82518152611c8b60208401611bb8565b6020820152604083015182811115611ca257600080fd5b611cae87828601611bc8565b604083015250606083015182811115611cc657600080fd5b611cd287828601611bc8565b6060830152506080830151608082015260a083015160a082015260c083015160c082015260e083015160e0820152610100915081830151828201526101209150611d1d828401611c15565b828201526101409150611d31828401611c15565b828201526101609150611d45828401611c25565b91810191909152949350505050565b600060018201611d6657611d66611b66565b5060010190565b6bffffffffffffffffffffffff198460601b16815260008351611d97816014850160208801611628565b60149201918201929092526034019392505050565b601f821115611df657600081815260208120601f850160051c81016020861015611dd35750805b601f850160051c820191505b81811015611df257828155600101611ddf565b5050505b505050565b815167ffffffffffffffff811115611e1557611e1561196b565b611e2981611e238454611b13565b84611dac565b602080601f831160018114611e5e5760008415611e465750858301515b600019600386901b1c1916600185901b178555611df2565b600085815260208120601f198616915b82811015611e8d57888601518255948401946001909101908401611e6e565b5085821015611eab5787850151600019600388901b60f8161c191681555b5050505050600190811b01905550565b606081526000611ece606083018661164c565b60208301949094525060400152919050565b6000808354611eee81611b13565b60018281168015611f065760018114611f1b57611f4a565b60ff1984168752821515830287019450611f4a565b8760005260208060002060005b85811015611f415781548a820152908401908201611f28565b50505082870194505b5092969550505050505056fea264697066735822122094f8b4fba9b4e9a45a4584f27d905411ef21b582a546db6f48438eb4ff43826564736f6c63430008140033",
  "linkReferences": {},
  "deployedLinkReferences": {}
}