{
  "_format": "hh-sol-artifact-1",
  "contractName": "AgentRegistry",
  "sourceName": "contracts/AgentRegistry.sol",
  "abi": [
    {
      "inputs": [
        {
          "internalType": "address",
          "name": "owner",
          "type": "address"
        }
      ],
      "name": "OwnableInvalidOwner",
      "type": "error"
    },
    {
      "inputs": [
        {
          "internalType": "address",
          "name": "account",
          "type": "address"
        }
      ],
      "name": "OwnableUnauthorizedAccount",
      "type": "error"
    },
    {
      "inputs": [],
      "name": "ReentrancyGuardReentrantCall",
      "type": "error"
    },
    {
      "anonymous": false,
      "inputs": [
        {
          "indexed": true,
          "internalType": "bytes32",
          "name": "agentId",
          "type": "bytes32"
        }
      ],
      "name": "AgentDeactivated",
      "type": "event"
    },
    {
      "anonymous": false,
      "inputs": [
        {
          "indexed": true,
          "internalType": "bytes32",
          "name": "agentId",
          "type": "bytes32"
        }
      ],
      "name": "AgentReactivated",
      "type": "event"
    },
    {
      "anonymous": false,
      "inputs": [
        {
          "indexed": true,
          "internalType": "bytes32",
          "name": "agentId",
          "type": "bytes32"
        },
        {
          "indexed": true,
          "internalType": "address",
          "name": "owner",
          "type": "address"
        },
        {
          "indexed": false,
          "internalType": "string",
          "name": "name",
          "type": "string"
        }
      ],
      "name": "AgentRegistered",
      "type": "event"
    },
    {
      "anonymous": false,
      "inputs": [
        {
          "indexed": true,
          "internalType": "bytes32",
          "name": "agentId",
          "type": "bytes32"
        },
        {
          "indexed": false,
          "internalType": "string",
          "name": "metadataURI",
          "type": "string"
        }
      ],
      "name": "AgentUpdated",
      "type": "event"
    },
    {
      "anonymous": false,
      "inputs": [
        {
          "indexed": true,
          "internalType": "address",
          "name": "previousOwner",
          "type": "address"
        },
        {
          "indexed": true,
          "internalType": "address",
          "name": "newOwner",
          "type": "address"
        }
      ],
      "name": "OwnershipTransferred",
      "type": "event"
    },
    {
      "anonymous": false,
      "inputs": [
        {
          "indexed": true,
          "internalType": "bytes32",
          "name": "agentId",
          "type": "bytes32"
        },
        {
          "indexed": false,
          "internalType": "uint256",
          "name": "newReputation",
          "type": "uint256"
        }
      ],
      "name": "ReputationUpdated",
      "type": "event"
    },
    {
      "inputs": [
        {
          "internalType": "bytes32",
          "name": "agentId",
          "type": "bytes32"
        },
        {
          "internalType": "uint256",
          "name": "amount",
          "type": "uint256"
        }
      ],
      "name": "addReputation",
      "outputs": [],
      "stateMutability": "nonpayable",
      "type": "function"
    },
    {
      "inputs": [
        {
          "internalType": "bytes32",
          "name": "",
          "type": "bytes32"
        }
      ],
      "name": "agents",
      "outputs": [
        {
          "internalType": "address",
          "name": "owner",
          "type": "address"
        },
        {
          "internalType": "string",
          "name": "name",
          "type": "string"
        },
        {
          "internalType": "string",
          "name": "metadataURI",
          "type": "string"
        },
        {
          "internalType": "uint256",
          "name": "reputation",
          "type": "uint256"
        },
        {
          "internalType": "bool",
          "name": "active",
          "type": "bool"
        },
        {
          "internalType": "uint256",
          "name": "registeredAt",
          "type": "uint256"
        }
      ],
      "stateMutability": "view",
      "type": "function"
    },
    {
      "inputs": [
        {
          "internalType": "uint256",
          "name": "",
          "type": "uint256"
        }
      ],
      "name": "allAgentIds",
      "outputs": [
        {
          "internalType": "bytes32",
          "name": "",
          "type": "bytes32"
        }
      ],
      "stateMutability": "view",
      "type": "function"
    },
    {
      "inputs": [
        {
          "internalType": "bytes32",
          "name": "agentId",
          "type": "bytes32"
        }
      ],
      "name": "deactivateAgent",
      "outputs": [],
      "stateMutability": "nonpayable",
      "type": "function"
    },
    {
      "inputs": [
        {
          "internalType": "bytes32",
          "name": "agentId",
          "type": "bytes32"
        }
      ],
      "name": "getAgent",
      "outputs": [
        {
          "components": [
            {
              "internalType": "address",
              "name": "owner",
              "type": "address"
            },
            {
              "internalType": "string",
              "name": "name",
              "type": "string"
            },
            {
              "internalType": "string",
              "name": "metadataURI",
              "type": "string"
            },
            {
              "internalType": "string[]",
              "name": "capabilities",
              "type": "string[]"
            },
            {
              "internalType": "uint256",
              "name": "reputation",
              "type": "uint256"
            },
            {
              "internalType": "bool",
              "name": "active",
              "type": "bool"
            },
            {
              "internalType": "uint256",
              "name": "registeredAt",
              "type": "uint256"
            }
          ],
          "internalType": "struct AgentRegistry.Agent",
          "name": "",
          "type": "tuple"
        }
      ],
      "stateMutability": "view",
      "type": "function"
    },
    {
      "inputs": [],
      "name": "getAgentCount",
      "outputs": [
        {
          "internalType": "uint256",
          "name": "",
          "type": "uint256"
        }
      ],
      "stateMutability": "view",
      "type": "function"
    },
    {
      "inputs": [
        {
          "internalType": "address",
          "name": "owner",
          "type": "address"
        }
      ],
      "name": "getAgentsByOwner",
      "outputs": [
        {
          "internalType": "bytes32[]",
          "name": "",
          "type": "bytes32[]"
        }
      ],
      "stateMutability": "view",
      "type": "function"
    },
    {
      "inputs": [],
      "name": "owner",
      "outputs": [
        {
          "internalType": "address",
          "name": "",
          "type": "address"
        }
      ],
      "stateMutability": "view",
      "type": "function"
    },
    {
      "inputs": [
        {
          "internalType": "address",
          "name": "",
          "type": "address"
        },
        {
          "internalType": "uint256",
          "name": "",
          "type": "uint256"
        }
      ],
      "name": "ownerAgents",
      "outputs": [
        {
          "internalType": "bytes32",
          "name": "",
          "type": "bytes32"
        }
      ],
      "stateMutability": "view",
      "type": "function"
    },
    {
      "inputs": [
        {
          "internalType": "bytes32",
          "name": "agentId",
          "type": "bytes32"
        }
      ],
      "name": "reactivateAgent",
      "outputs": [],
      "stateMutability": "nonpayable",
      "type": "function"
    },
    {
      "inputs": [
        {
          "internalType": "string",
          "name": "name",
          "type": "string"
        },
        {
          "internalType": "string",
          "name": "metadataURI",
          "type": "string"
        },
        {
          "internalType": "string[]",
          "name": "capabilities",
          "type": "string[]"
        }
      ],
      "name": "registerAgent",
      "outputs": [
        {
          "internalType": "bytes32",
          "name": "",
          "type": "bytes32"
        }
      ],
      "stateMutability": "nonpayable",
      "type": "function"
    },
    {
      "inputs": [],
      "name": "renounceOwnership",
      "outputs": [],
      "stateMutability": "nonpayable",
      "type": "function"
    },
    {
      "inputs": [
        {
          "internalType": "address",
          "name": "newOwner",
          "type": "address"
        }
      ],
      "name": "transferOwnership",
      "outputs": [],
      "stateMutability": "nonpayable",
      "type": "function"
    },
    {
      "inputs": [
        {
          "internalType": "bytes32",
          "name": "agentId",
          "type": "bytes32"
        },
        {
          "internalType": "string",
          "name": "metadataURI",
          "type": "string"
        }
      ],
      "name": "updateAgentMetadata",
      "outputs": [],
      "stateMutability": "nonpayable",
      "type": "function"
    }
  ],
  "bytecode": "0x608060405234801561001057600080fd5b50338061003757604051631e4fbdf760e01b81526000600482015260240160405180910390fd5b6100408161006a565b5060017f9b779b17422d0df92223018b32b4d1fa46e071723d6817e2486d003becc55f00556100ba565b600080546001600160a01b038381166001600160a01b0319831681178455604051919092169283917f8be0079c531659141344cd1fd0a4f28419497f9722a3daafe3b4186f6b6457e09190a35050565b61135c806100c96000396000f3fe608060405234801561001057600080fd5b50600436106100ea5760003560e01c8063715018a61161008c57806391cab63e1161006657806391cab63e146101e257806398be7c8d146101ea578063a6c2af01146101fd578063f2fde38b1461021d57600080fd5b8063715018a6146101ac5780638da5cb5b146101b45780638eff9c8a146101cf57600080fd5b806359b5acf3116100c857806359b5acf31461015257806362febe4f14610165578063668e6ed91461018657806369d583fc1461019957600080fd5b80631ab6f888146100ef5780632e20ee18146101185780633d8c2c2b1461013d575b600080fd5b6101026100fd366004610ce3565b610230565b60405161010f9190610d05565b60405180910390f35b61012b610126366004610d49565b61029c565b60405161010f96959493929190610db2565b61015061014b366004610d49565b6103f2565b005b610150610160366004610d49565b61047d565b610178610173366004610e07565b6104f9565b60405190815260200161010f565b610150610194366004610ee8565b61052a565b6101506101a7366004610f2f565b61060d565b61015061068d565b6000546040516001600160a01b03909116815260200161010f565b6101786101dd366004610f51565b6106a1565b600354610178565b6101786101f8366004610d49565b610892565b61021061020b366004610d49565b6108b3565b60405161010f919061105b565b61015061022b366004610ce3565b610b4f565b6001600160a01b03811660009081526002602090815260409182902080548351818402810184019094528084526060939283018282801561029057602002820191906000526020600020905b81548152602001906001019080831161027c575b50505050509050919050565b6001602081905260009182526040909120805491810180546001600160a01b03909316926102c99061113b565b80601f01602080910402602001604051908101604052809291908181526020018280546102f59061113b565b80156103425780601f1061031757610100808354040283529160200191610342565b820191906000526020600020905b81548152906001019060200180831161032557829003601f168201915b5050505050908060020180546103579061113b565b80601f01602080910402602001604051908101604052809291908181526020018280546103839061113b565b80156103d05780601f106103a5576101008083540402835291602001916103d0565b820191906000526020600020905b8154815290600101906020018083116103b357829003601f168201915b50505050600483015460058401546006909401549293909260ff909116915086565b60008181526001602052604090205481906001600160a01b031633146104335760405162461bcd60e51b815260040161042a90611175565b60405180910390fd5b6000828152600160208190526040808320600501805460ff19169092179091555183917f0404d5081a399729874abb3ab628d6da9f03c8965b61a345319678a5f7952cc591a25050565b60008181526001602052604090205481906001600160a01b031633146104b55760405162461bcd60e51b815260040161042a90611175565b600082815260016020526040808220600501805460ff191690555183917f83fa9a5555770ebb043d9ef83dd2d496875b8a91e0b595e5ce06520ba75187ad91a25050565b6002602052816000526040600020818154811061051557600080fd5b90600052602060002001600091509150505481565b60008281526001602052604090205482906001600160a01b031633146105625760405162461bcd60e51b815260040161042a90611175565b60008381526001602052604090206005015460ff166105b45760405162461bcd60e51b815260206004820152600e60248201526d4167656e7420696e61637469766560901b604482015260640161042a565b60008381526001602052604090206002016105cf83826111ed565b50827f1f4703d97a7ba241088b5d647231164887793dc56fcab7fa8661dd86eea1112d8360405161060091906112ad565b60405180910390a2505050565b610615610b8d565b600082815260016020526040812060040180548392906106369084906112c0565b90915550506000828152600160205260409081902060040154905183917f643d988938d60eb0f25f427e235470754905356536009cff1faf041b0e510b2e9161068191815260200190565b60405180910390a25050565b610695610b8d565b61069f6000610bba565b565b6000803385426040516020016106b9939291906112e7565b60408051601f198184030181529181528151602092830120600081815260019093529120549091506001600160a01b0316156107265760405162461bcd60e51b815260206004820152600c60248201526b4167656e742065786973747360a01b604482015260640161042a565b6040805160e081018252338152602080820188815282840188905260608301879052600060808401819052600160a085018190524260c08601528682529283905293909320825181546001600160a01b0319166001600160a01b0390911617815592519192919082019061079a90826111ed565b50604082015160028201906107af90826111ed565b50606082015180516107cb916003840191602090910190610c0a565b506080820151600482015560a082015160058201805460ff191691151591909117905560c0909101516006909101553360008181526002602090815260408083208054600181810183559185529284209092018590556003805492830181559092527fc2575a0e9e593c00f959f8c92f12db2869c3395a3b0502d05e2516446f71f85b018390555182907f186c9e760261cf9d36dfc9a09ca598dbff789d7d4201868118b92d46e56dac80906108829089906112ad565b60405180910390a3949350505050565b600381815481106108a257600080fd5b600091825260209091200154905081565b6108fe6040518060e0016040528060006001600160a01b0316815260200160608152602001606081526020016060815260200160008152602001600015158152602001600081525090565b600082815260016020818152604092839020835160e0810190945280546001600160a01b031684529182018054918401916109389061113b565b80601f01602080910402602001604051908101604052809291908181526020018280546109649061113b565b80156109b15780601f10610986576101008083540402835291602001916109b1565b820191906000526020600020905b81548152906001019060200180831161099457829003601f168201915b505050505081526020016002820180546109ca9061113b565b80601f01602080910402602001604051908101604052809291908181526020018280546109f69061113b565b8015610a435780601f10610a1857610100808354040283529160200191610a43565b820191906000526020600020905b815481529060010190602001808311610a2657829003601f168201915b5050505050815260200160038201805480602002602001604051908101604052809291908181526020016000905b82821015610b1d578382906000526020600020018054610a909061113b565b80601f0160208091040260200160405190810160405280929190818152602001828054610abc9061113b565b8015610b095780601f10610ade57610100808354040283529160200191610b09565b820191906000526020600020905b815481529060010190602001808311610aec57829003601f168201915b505050505081526020019060010190610a71565b5050509082525060048201546020820152600582015460ff161515604082015260069091015460609091015292915050565b610b57610b8d565b6001600160a01b038116610b8157604051631e4fbdf760e01b81526000600482015260240161042a565b610b8a81610bba565b50565b6000546001600160a01b0316331461069f5760405163118cdaa760e01b815233600482015260240161042a565b600080546001600160a01b038381166001600160a01b0319831681178455604051919092169283917f8be0079c531659141344cd1fd0a4f28419497f9722a3daafe3b4186f6b6457e09190a35050565b828054828255906000526020600020908101928215610c50579160200282015b82811115610c505782518290610c4090826111ed565b5091602001919060010190610c2a565b50610c5c929150610c60565b5090565b80821115610c5c576000610c748282610c7d565b50600101610c60565b508054610c899061113b565b6000825580601f10610c99575050565b601f016020900490600052602060002090810190610b8a91905b80821115610c5c5760008155600101610cb3565b80356001600160a01b0381168114610cde57600080fd5b919050565b600060208284031215610cf557600080fd5b610cfe82610cc7565b9392505050565b6020808252825182820181905260009190848201906040850190845b81811015610d3d57835183529284019291840191600101610d21565b50909695505050505050565b600060208284031215610d5b57600080fd5b5035919050565b60005b83811015610d7d578181015183820152602001610d65565b50506000910152565b60008151808452610d9e816020860160208601610d62565b601f01601f19169290920160200192915050565b6001600160a01b038716815260c060208201819052600090610dd690830188610d86565b8281036040840152610de88188610d86565b60608401969096525050911515608083015260a0909101529392505050565b60008060408385031215610e1a57600080fd5b610e2383610cc7565b946020939093013593505050565b634e487b7160e01b600052604160045260246000fd5b604051601f8201601f1916810167ffffffffffffffff81118282101715610e7057610e70610e31565b604052919050565b600082601f830112610e8957600080fd5b813567ffffffffffffffff811115610ea357610ea3610e31565b610eb6601f8201601f1916602001610e47565b818152846020838601011115610ecb57600080fd5b816020850160208301376000918101602001919091529392505050565b60008060408385031215610efb57600080fd5b82359150602083013567ffffffffffffffff811115610f1957600080fd5b610f2585828601610e78565b9150509250929050565b60008060408385031215610f4257600080fd5b50508035926020909101359150565b600080600060608486031215610f6657600080fd5b833567ffffffffffffffff80821115610f7e57600080fd5b610f8a87838801610e78565b9450602091508186013581811115610fa157600080fd5b610fad88828901610e78565b945050604086013581811115610fc257600080fd5b8601601f81018813610fd357600080fd5b803582811115610fe557610fe5610e31565b8060051b610ff4858201610e47565b918252828101850191858101908b84111561100e57600080fd5b86850192505b8383101561104a5782358681111561102c5760008081fd5b61103a8d8983890101610e78565b8352509186019190860190611014565b809750505050505050509250925092565b602080825282516001600160a01b0316828201528281015160e060408401526000919061108c610100850182610d86565b90506040850151601f19808684030160608701526110aa8383610d86565b60608801518782038301608089015280518083529194508501925084840190600581901b8501860160005b8281101561110157848783030184526110ef828751610d86565b958801959388019391506001016110d5565b5060808a015160a08a015260a08a0151965061112160c08a018815159052565b60c08a015160e08a01528097505050505050505092915050565b600181811c9082168061114f57607f821691505b60208210810361116f57634e487b7160e01b600052602260045260246000fd5b50919050565b6020808252600f908201526e2737ba1030b3b2b73a1037bbb732b960891b604082015260600190565b601f8211156111e857600081815260208120601f850160051c810160208610156111c55750805b601f850160051c820191505b818110156111e4578281556001016111d1565b5050505b505050565b815167ffffffffffffffff81111561120757611207610e31565b61121b81611215845461113b565b8461119e565b602080601f83116001811461125057600084156112385750858301515b600019600386901b1c1916600185901b1785556111e4565b600085815260208120601f198616915b8281101561127f57888601518255948401946001909101908401611260565b508582101561129d5787850151600019600388901b60f8161c191681555b5050505050600190811b01905550565b602081526000610cfe6020830184610d86565b808201808211156112e157634e487b7160e01b600052601160045260246000fd5b92915050565b6bffffffffffffffffffffffff198460601b16815260008351611311816014850160208801610d62565b6014920191820192909252603401939250505056fea2646970667358221220ccd43785681569ca9f2553458529a072e8ab5ebec4a00f2d9cdadbb11e17f4db64736f6c63430008140033",
  "linkReferences": {},
  "deployedLinkReferences": {}
}